{
  "address": "0xC1f463ab045ce3c68513744e2641158d829a1dFA",
  "abi": [
    {
      "inputs": [
        {
          "internalType": "address",
          "name": "_oracle",
          "type": "address"
        },
        {
          "internalType": "address",
          "name": "_shortPowerPerp",
          "type": "address"
        },
        {
          "internalType": "address",
          "name": "_wPowerPerp",
          "type": "address"
        },
        {
          "internalType": "address",
          "name": "_weth",
          "type": "address"
        },
        {
          "internalType": "address",
          "name": "_quoteCurrency",
          "type": "address"
        },
        {
          "internalType": "address",
          "name": "_ethQuoteCurrencyPool",
          "type": "address"
        },
        {
          "internalType": "address",
          "name": "_wPowerPerpPool",
          "type": "address"
        },
        {
          "internalType": "address",
          "name": "_uniPositionManager",
          "type": "address"
        },
        {
          "internalType": "uint24",
          "name": "_feeTier",
          "type": "uint24"
        }
      ],
      "stateMutability": "nonpayable",
      "type": "constructor"
    },
    {
      "anonymous": false,
      "inputs": [
        {
          "indexed": false,
          "internalType": "address",
          "name": "sender",
          "type": "address"
        },
        {
          "indexed": false,
          "internalType": "uint256",
          "name": "amount",
          "type": "uint256"
        },
        {
          "indexed": false,
          "internalType": "uint256",
          "name": "vaultId",
          "type": "uint256"
        }
      ],
      "name": "BurnShort",
      "type": "event"
    },
    {
      "anonymous": false,
      "inputs": [
        {
          "indexed": false,
          "internalType": "address",
          "name": "sender",
          "type": "address"
        },
        {
          "indexed": false,
          "internalType": "uint256",
          "name": "vaultId",
          "type": "uint256"
        },
        {
          "indexed": false,
          "internalType": "uint256",
          "name": "amount",
          "type": "uint256"
        }
      ],
      "name": "DepositCollateral",
      "type": "event"
    },
    {
      "anonymous": false,
      "inputs": [
        {
          "indexed": false,
          "internalType": "address",
          "name": "sender",
          "type": "address"
        },
        {
          "indexed": false,
          "internalType": "uint256",
          "name": "vaultId",
          "type": "uint256"
        },
        {
          "indexed": false,
          "internalType": "uint256",
          "name": "tokenId",
          "type": "uint256"
        }
      ],
      "name": "DepositUniPositionToken",
      "type": "event"
    },
    {
      "anonymous": false,
      "inputs": [
        {
          "indexed": false,
          "internalType": "uint256",
          "name": "oldFee",
          "type": "uint256"
        },
        {
          "indexed": false,
          "internalType": "uint256",
          "name": "newFee",
          "type": "uint256"
        }
      ],
      "name": "FeeRateUpdated",
      "type": "event"
    },
    {
      "anonymous": false,
      "inputs": [
        {
          "indexed": false,
          "internalType": "address",
          "name": "oldFeeRecipient",
          "type": "address"
        },
        {
          "indexed": false,
          "internalType": "address",
          "name": "newFeeRecipient",
          "type": "address"
        }
      ],
      "name": "FeeRecipientUpdated",
      "type": "event"
    },
    {
      "anonymous": false,
      "inputs": [
        {
          "indexed": false,
          "internalType": "address",
          "name": "liquidator",
          "type": "address"
        },
        {
          "indexed": false,
          "internalType": "uint256",
          "name": "vaultId",
          "type": "uint256"
        },
        {
          "indexed": false,
          "internalType": "uint256",
          "name": "debtAmount",
          "type": "uint256"
        },
        {
          "indexed": false,
          "internalType": "uint256",
          "name": "collateralPaid",
          "type": "uint256"
        }
      ],
      "name": "Liquidate",
      "type": "event"
    },
    {
      "anonymous": false,
      "inputs": [
        {
          "indexed": false,
          "internalType": "address",
          "name": "sender",
          "type": "address"
        },
        {
          "indexed": false,
          "internalType": "uint256",
          "name": "amount",
          "type": "uint256"
        },
        {
          "indexed": false,
          "internalType": "uint256",
          "name": "vaultId",
          "type": "uint256"
        }
      ],
      "name": "MintShort",
      "type": "event"
    },
    {
      "anonymous": false,
      "inputs": [
        {
          "indexed": false,
          "internalType": "uint256",
          "name": "oldNormFactor",
          "type": "uint256"
        },
        {
          "indexed": false,
          "internalType": "uint256",
          "name": "newNormFactor",
          "type": "uint256"
        },
        {
          "indexed": false,
          "internalType": "uint256",
          "name": "lastModificationTimestamp",
          "type": "uint256"
        },
        {
          "indexed": false,
          "internalType": "uint256",
          "name": "timestamp",
          "type": "uint256"
        }
      ],
      "name": "NormalizationFactorUpdated",
      "type": "event"
    },
    {
      "anonymous": false,
      "inputs": [
        {
          "indexed": false,
          "internalType": "address",
          "name": "sender",
          "type": "address"
        },
        {
          "indexed": false,
          "internalType": "uint256",
          "name": "vaultId",
          "type": "uint256"
        }
      ],
      "name": "OpenVault",
      "type": "event"
    },
    {
      "anonymous": false,
      "inputs": [
        {
          "indexed": true,
          "internalType": "address",
          "name": "previousOwner",
          "type": "address"
        },
        {
          "indexed": true,
          "internalType": "address",
          "name": "newOwner",
          "type": "address"
        }
      ],
      "name": "OwnershipTransferred",
      "type": "event"
    },
    {
      "anonymous": false,
      "inputs": [
        {
          "indexed": false,
          "internalType": "uint256",
          "name": "pausesLeft",
          "type": "uint256"
        }
      ],
      "name": "Paused",
      "type": "event"
    },
    {
      "anonymous": false,
      "inputs": [
        {
          "indexed": false,
          "internalType": "address",
          "name": "sender",
          "type": "address"
        },
        {
          "indexed": false,
          "internalType": "uint256",
          "name": "wPowerPerpAmount",
          "type": "uint256"
        },
        {
          "indexed": false,
          "internalType": "uint256",
          "name": "payoutAmount",
          "type": "uint256"
        }
      ],
      "name": "RedeemLong",
      "type": "event"
    },
    {
      "anonymous": false,
      "inputs": [
        {
          "indexed": false,
          "internalType": "address",
          "name": "sender",
          "type": "address"
        },
        {
          "indexed": false,
          "internalType": "uint256",
          "name": "vauldId",
          "type": "uint256"
        },
        {
          "indexed": false,
          "internalType": "uint256",
          "name": "collateralAmount",
          "type": "uint256"
        }
      ],
      "name": "RedeemShort",
      "type": "event"
    },
    {
      "anonymous": false,
      "inputs": [
        {
          "indexed": false,
          "internalType": "address",
          "name": "sender",
          "type": "address"
        },
        {
          "indexed": false,
          "internalType": "uint256",
          "name": "vaultId",
          "type": "uint256"
        },
        {
          "indexed": false,
          "internalType": "uint256",
          "name": "ethRedeemed",
          "type": "uint256"
        },
        {
          "indexed": false,
          "internalType": "uint256",
          "name": "wPowerPerpRedeemed",
          "type": "uint256"
        },
        {
          "indexed": false,
          "internalType": "uint256",
          "name": "wPowerPerpBurned",
          "type": "uint256"
        },
        {
          "indexed": false,
          "internalType": "uint256",
          "name": "wPowerPerpExcess",
          "type": "uint256"
        },
        {
          "indexed": false,
          "internalType": "uint256",
          "name": "bounty",
          "type": "uint256"
        }
      ],
      "name": "ReduceDebt",
      "type": "event"
    },
    {
      "anonymous": false,
      "inputs": [
        {
          "indexed": false,
          "internalType": "uint256",
          "name": "indexForSettlement",
          "type": "uint256"
        }
      ],
      "name": "Shutdown",
      "type": "event"
    },
    {
      "anonymous": false,
      "inputs": [
        {
          "indexed": false,
          "internalType": "address",
          "name": "unpauser",
          "type": "address"
        }
      ],
      "name": "UnPaused",
      "type": "event"
    },
    {
      "anonymous": false,
      "inputs": [
        {
          "indexed": false,
          "internalType": "address",
          "name": "sender",
          "type": "address"
        },
        {
          "indexed": false,
          "internalType": "uint256",
          "name": "vaultId",
          "type": "uint256"
        },
        {
          "indexed": false,
          "internalType": "address",
          "name": "operator",
          "type": "address"
        }
      ],
      "name": "UpdateOperator",
      "type": "event"
    },
    {
      "anonymous": false,
      "inputs": [
        {
          "indexed": false,
          "internalType": "address",
          "name": "sender",
          "type": "address"
        },
        {
          "indexed": false,
          "internalType": "uint256",
          "name": "vaultId",
          "type": "uint256"
        },
        {
          "indexed": false,
          "internalType": "uint256",
          "name": "amount",
          "type": "uint256"
        }
      ],
      "name": "WithdrawCollateral",
      "type": "event"
    },
    {
      "anonymous": false,
      "inputs": [
        {
          "indexed": false,
          "internalType": "address",
          "name": "sender",
          "type": "address"
        },
        {
          "indexed": false,
          "internalType": "uint256",
          "name": "vaultId",
          "type": "uint256"
        },
        {
          "indexed": false,
          "internalType": "uint256",
          "name": "tokenId",
          "type": "uint256"
        }
      ],
      "name": "WithdrawUniPositionToken",
      "type": "event"
    },
    {
      "inputs": [],
      "name": "FUNDING_PERIOD",
      "outputs": [
        {
          "internalType": "uint256",
          "name": "",
          "type": "uint256"
        }
      ],
      "stateMutability": "view",
      "type": "function"
    },
    {
      "inputs": [],
      "name": "TWAP_PERIOD",
      "outputs": [
        {
          "internalType": "uint32",
          "name": "",
          "type": "uint32"
        }
      ],
      "stateMutability": "view",
      "type": "function"
    },
    {
      "inputs": [],
      "name": "applyFunding",
      "outputs": [],
      "stateMutability": "nonpayable",
      "type": "function"
    },
    {
      "inputs": [
        {
          "internalType": "uint256",
          "name": "_vaultId",
          "type": "uint256"
        },
        {
          "internalType": "uint256",
          "name": "_powerPerpAmount",
          "type": "uint256"
        },
        {
          "internalType": "uint256",
          "name": "_withdrawAmount",
          "type": "uint256"
        }
      ],
      "name": "burnPowerPerpAmount",
      "outputs": [
        {
          "internalType": "uint256",
          "name": "",
          "type": "uint256"
        }
      ],
      "stateMutability": "nonpayable",
      "type": "function"
    },
    {
      "inputs": [
        {
          "internalType": "uint256",
          "name": "_vaultId",
          "type": "uint256"
        },
        {
          "internalType": "uint256",
          "name": "_wPowerPerpAmount",
          "type": "uint256"
        },
        {
          "internalType": "uint256",
          "name": "_withdrawAmount",
          "type": "uint256"
        }
      ],
      "name": "burnWPowerPerpAmount",
      "outputs": [],
      "stateMutability": "nonpayable",
      "type": "function"
    },
    {
      "inputs": [
        {
          "internalType": "uint256",
          "name": "_vaultId",
          "type": "uint256"
        }
      ],
      "name": "deposit",
      "outputs": [],
      "stateMutability": "payable",
      "type": "function"
    },
    {
      "inputs": [
        {
          "internalType": "uint256",
          "name": "_vaultId",
          "type": "uint256"
        },
        {
          "internalType": "uint256",
          "name": "_uniTokenId",
          "type": "uint256"
        }
      ],
      "name": "depositUniPositionToken",
      "outputs": [],
      "stateMutability": "nonpayable",
      "type": "function"
    },
    {
      "inputs": [],
      "name": "donate",
      "outputs": [],
      "stateMutability": "payable",
      "type": "function"
    },
    {
      "inputs": [],
      "name": "ethQuoteCurrencyPool",
      "outputs": [
        {
          "internalType": "address",
          "name": "",
          "type": "address"
        }
      ],
      "stateMutability": "view",
      "type": "function"
    },
    {
      "inputs": [],
      "name": "feeRate",
      "outputs": [
        {
          "internalType": "uint256",
          "name": "",
          "type": "uint256"
        }
      ],
      "stateMutability": "view",
      "type": "function"
    },
    {
      "inputs": [],
      "name": "feeRecipient",
      "outputs": [
        {
          "internalType": "address",
          "name": "",
          "type": "address"
        }
      ],
      "stateMutability": "view",
      "type": "function"
    },
    {
      "inputs": [],
      "name": "feeTier",
      "outputs": [
        {
          "internalType": "uint24",
          "name": "",
          "type": "uint24"
        }
      ],
      "stateMutability": "view",
      "type": "function"
    },
    {
      "inputs": [
        {
          "internalType": "uint32",
          "name": "_period",
          "type": "uint32"
        }
      ],
      "name": "getDenormalizedMark",
      "outputs": [
        {
          "internalType": "uint256",
          "name": "",
          "type": "uint256"
        }
      ],
      "stateMutability": "view",
      "type": "function"
    },
    {
      "inputs": [
        {
          "internalType": "uint32",
          "name": "_period",
          "type": "uint32"
        }
      ],
      "name": "getDenormalizedMarkForFunding",
      "outputs": [
        {
          "internalType": "uint256",
          "name": "",
          "type": "uint256"
        }
      ],
      "stateMutability": "view",
      "type": "function"
    },
    {
      "inputs": [],
      "name": "getExpectedNormalizationFactor",
      "outputs": [
        {
          "internalType": "uint256",
          "name": "",
          "type": "uint256"
        }
      ],
      "stateMutability": "view",
      "type": "function"
    },
    {
      "inputs": [
        {
          "internalType": "uint32",
          "name": "_period",
          "type": "uint32"
        }
      ],
      "name": "getIndex",
      "outputs": [
        {
          "internalType": "uint256",
          "name": "",
          "type": "uint256"
        }
      ],
      "stateMutability": "view",
      "type": "function"
    },
    {
      "inputs": [
        {
          "internalType": "uint32",
          "name": "_period",
          "type": "uint32"
        }
      ],
      "name": "getUnscaledIndex",
      "outputs": [
        {
          "internalType": "uint256",
          "name": "",
          "type": "uint256"
        }
      ],
      "stateMutability": "view",
      "type": "function"
    },
    {
      "inputs": [],
      "name": "indexForSettlement",
      "outputs": [
        {
          "internalType": "uint256",
          "name": "",
          "type": "uint256"
        }
      ],
      "stateMutability": "view",
      "type": "function"
    },
    {
      "inputs": [],
      "name": "isShutDown",
      "outputs": [
        {
          "internalType": "bool",
          "name": "",
          "type": "bool"
        }
      ],
      "stateMutability": "view",
      "type": "function"
    },
    {
      "inputs": [],
      "name": "isSystemPaused",
      "outputs": [
        {
          "internalType": "bool",
          "name": "",
          "type": "bool"
        }
      ],
      "stateMutability": "view",
      "type": "function"
    },
    {
      "inputs": [
        {
          "internalType": "uint256",
          "name": "_vaultId",
          "type": "uint256"
        }
      ],
      "name": "isVaultSafe",
      "outputs": [
        {
          "internalType": "bool",
          "name": "",
          "type": "bool"
        }
      ],
      "stateMutability": "view",
      "type": "function"
    },
    {
      "inputs": [],
      "name": "lastFundingUpdateTimestamp",
      "outputs": [
        {
          "internalType": "uint128",
          "name": "",
          "type": "uint128"
        }
      ],
      "stateMutability": "view",
      "type": "function"
    },
    {
      "inputs": [],
      "name": "lastPauseTime",
      "outputs": [
        {
          "internalType": "uint256",
          "name": "",
          "type": "uint256"
        }
      ],
      "stateMutability": "view",
      "type": "function"
    },
    {
      "inputs": [
        {
          "internalType": "uint256",
          "name": "_vaultId",
          "type": "uint256"
        },
        {
          "internalType": "uint256",
          "name": "_maxDebtAmount",
          "type": "uint256"
        }
      ],
      "name": "liquidate",
      "outputs": [
        {
          "internalType": "uint256",
          "name": "",
          "type": "uint256"
        }
      ],
      "stateMutability": "nonpayable",
      "type": "function"
    },
    {
      "inputs": [
        {
          "internalType": "uint256",
          "name": "_vaultId",
          "type": "uint256"
        },
        {
          "internalType": "uint256",
          "name": "_powerPerpAmount",
          "type": "uint256"
        },
        {
          "internalType": "uint256",
          "name": "_uniTokenId",
          "type": "uint256"
        }
      ],
      "name": "mintPowerPerpAmount",
      "outputs": [
        {
          "internalType": "uint256",
          "name": "",
          "type": "uint256"
        },
        {
          "internalType": "uint256",
          "name": "",
          "type": "uint256"
        }
      ],
      "stateMutability": "payable",
      "type": "function"
    },
    {
      "inputs": [
        {
          "internalType": "uint256",
          "name": "_vaultId",
          "type": "uint256"
        },
        {
          "internalType": "uint256",
          "name": "_wPowerPerpAmount",
          "type": "uint256"
        },
        {
          "internalType": "uint256",
          "name": "_uniTokenId",
          "type": "uint256"
        }
      ],
      "name": "mintWPowerPerpAmount",
      "outputs": [
        {
          "internalType": "uint256",
          "name": "",
          "type": "uint256"
        }
      ],
      "stateMutability": "payable",
      "type": "function"
    },
    {
      "inputs": [],
      "name": "normalizationFactor",
      "outputs": [
        {
          "internalType": "uint128",
          "name": "",
          "type": "uint128"
        }
      ],
      "stateMutability": "view",
      "type": "function"
    },
    {
      "inputs": [
        {
          "internalType": "address",
          "name": "",
          "type": "address"
        },
        {
          "internalType": "address",
          "name": "",
          "type": "address"
        },
        {
          "internalType": "uint256",
          "name": "",
          "type": "uint256"
        },
        {
          "internalType": "bytes",
          "name": "",
          "type": "bytes"
        }
      ],
      "name": "onERC721Received",
      "outputs": [
        {
          "internalType": "bytes4",
          "name": "",
          "type": "bytes4"
        }
      ],
      "stateMutability": "nonpayable",
      "type": "function"
    },
    {
      "inputs": [],
      "name": "oracle",
      "outputs": [
        {
          "internalType": "address",
          "name": "",
          "type": "address"
        }
      ],
      "stateMutability": "view",
      "type": "function"
    },
    {
      "inputs": [],
      "name": "owner",
      "outputs": [
        {
          "internalType": "address",
          "name": "",
          "type": "address"
        }
      ],
      "stateMutability": "view",
      "type": "function"
    },
    {
      "inputs": [],
      "name": "pause",
      "outputs": [],
      "stateMutability": "nonpayable",
      "type": "function"
    },
    {
      "inputs": [],
      "name": "pausesLeft",
      "outputs": [
        {
          "internalType": "uint256",
          "name": "",
          "type": "uint256"
        }
      ],
      "stateMutability": "view",
      "type": "function"
    },
    {
      "inputs": [],
      "name": "quoteCurrency",
      "outputs": [
        {
          "internalType": "address",
          "name": "",
          "type": "address"
        }
      ],
      "stateMutability": "view",
      "type": "function"
    },
    {
      "inputs": [
        {
          "internalType": "uint256",
          "name": "_wPerpAmount",
          "type": "uint256"
        }
      ],
      "name": "redeemLong",
      "outputs": [],
      "stateMutability": "nonpayable",
      "type": "function"
    },
    {
      "inputs": [
        {
          "internalType": "uint256",
          "name": "_vaultId",
          "type": "uint256"
        }
      ],
      "name": "redeemShort",
      "outputs": [],
      "stateMutability": "nonpayable",
      "type": "function"
    },
    {
      "inputs": [
        {
          "internalType": "uint256",
          "name": "_vaultId",
          "type": "uint256"
        }
      ],
      "name": "reduceDebt",
      "outputs": [],
      "stateMutability": "nonpayable",
      "type": "function"
    },
    {
      "inputs": [
        {
          "internalType": "uint256",
          "name": "_vaultId",
          "type": "uint256"
        }
      ],
      "name": "reduceDebtShutdown",
      "outputs": [],
      "stateMutability": "nonpayable",
      "type": "function"
    },
    {
      "inputs": [],
      "name": "renounceOwnership",
      "outputs": [],
      "stateMutability": "nonpayable",
      "type": "function"
    },
    {
      "inputs": [
        {
          "internalType": "uint256",
          "name": "_newFeeRate",
          "type": "uint256"
        }
      ],
      "name": "setFeeRate",
      "outputs": [],
      "stateMutability": "nonpayable",
      "type": "function"
    },
    {
      "inputs": [
        {
          "internalType": "address",
          "name": "_newFeeRecipient",
          "type": "address"
        }
      ],
      "name": "setFeeRecipient",
      "outputs": [],
      "stateMutability": "nonpayable",
      "type": "function"
    },
    {
      "inputs": [],
      "name": "shortPowerPerp",
      "outputs": [
        {
          "internalType": "address",
          "name": "",
          "type": "address"
        }
      ],
      "stateMutability": "view",
      "type": "function"
    },
    {
      "inputs": [],
      "name": "shutDown",
      "outputs": [],
      "stateMutability": "nonpayable",
      "type": "function"
    },
    {
      "inputs": [
        {
          "internalType": "address",
          "name": "newOwner",
          "type": "address"
        }
      ],
      "name": "transferOwnership",
      "outputs": [],
      "stateMutability": "nonpayable",
      "type": "function"
    },
    {
      "inputs": [],
      "name": "unPauseAnyone",
      "outputs": [],
      "stateMutability": "nonpayable",
      "type": "function"
    },
    {
      "inputs": [],
      "name": "unPauseOwner",
      "outputs": [],
      "stateMutability": "nonpayable",
      "type": "function"
    },
    {
      "inputs": [
        {
          "internalType": "uint256",
          "name": "_vaultId",
          "type": "uint256"
        },
        {
          "internalType": "address",
          "name": "_operator",
          "type": "address"
        }
      ],
      "name": "updateOperator",
      "outputs": [],
      "stateMutability": "nonpayable",
      "type": "function"
    },
    {
      "inputs": [
        {
          "internalType": "uint256",
          "name": "",
          "type": "uint256"
        }
      ],
      "name": "vaults",
      "outputs": [
        {
          "internalType": "address",
          "name": "operator",
          "type": "address"
        },
        {
          "internalType": "uint32",
          "name": "NftCollateralId",
          "type": "uint32"
        },
        {
          "internalType": "uint96",
          "name": "collateralAmount",
          "type": "uint96"
        },
        {
          "internalType": "uint128",
          "name": "shortAmount",
          "type": "uint128"
        }
      ],
      "stateMutability": "view",
      "type": "function"
    },
    {
      "inputs": [],
      "name": "wPowerPerp",
      "outputs": [
        {
          "internalType": "address",
          "name": "",
          "type": "address"
        }
      ],
      "stateMutability": "view",
      "type": "function"
    },
    {
      "inputs": [],
      "name": "wPowerPerpPool",
      "outputs": [
        {
          "internalType": "address",
          "name": "",
          "type": "address"
        }
      ],
      "stateMutability": "view",
      "type": "function"
    },
    {
      "inputs": [],
      "name": "weth",
      "outputs": [
        {
          "internalType": "address",
          "name": "",
          "type": "address"
        }
      ],
      "stateMutability": "view",
      "type": "function"
    },
    {
      "inputs": [
        {
          "internalType": "uint256",
          "name": "_vaultId",
          "type": "uint256"
        },
        {
          "internalType": "uint256",
          "name": "_amount",
          "type": "uint256"
        }
      ],
      "name": "withdraw",
      "outputs": [],
      "stateMutability": "nonpayable",
      "type": "function"
    },
    {
      "inputs": [
        {
          "internalType": "uint256",
          "name": "_vaultId",
          "type": "uint256"
        }
      ],
      "name": "withdrawUniPositionToken",
      "outputs": [],
      "stateMutability": "nonpayable",
      "type": "function"
    },
    {
      "stateMutability": "payable",
      "type": "receive"
    }
  ],
  "transactionHash": "0x7e0d0c93ef9fae88a31269f80c24a47e08465ca3d4678a47a97b66d0616eeb86",
  "args": [
    "0xDc371dF9029603165f9C6F5267CC4B4e9AD7DE38",
    "0x518a8f5ac599C96bB0c4aa17aCaa7654F04Ff56C",
    "0xB58c687d4645FfC502036c13253373AA1548Fb00",
    "0xae13d989daC2f0dEbFf460aC112a837C89BAa7cd",
    "0x0063712240A0915c0070766678B85edD4b5bFAA3",
    "0x158FFB03DD88A083C211817b19f98636765276F6",
    "0x8a9FB9c7Ec2095A541188943E71D5D13f6d474FA",
    "0x427bF5b37357632377eCbEC9de3626C71A5396c1",
    10000
  ],
  "solcInputHash": "6ae6cc27c424495697be3ded1d1579ac",
  "bytecode": "0x6101e060405260046005553480156200001757600080fd5b5060405162006630380380620066308339810160408190526200003a916200032c565b600062000046620002c4565b600080546001600160a01b0319166001600160a01b0383169081178255604051929350917f8be0079c531659141344cd1fd0a4f28419497f9722a3daafe3b4186f6b6457e0908290a350600180556001600160a01b038916620000c65760405162461bcd60e51b8152600401620000bd9062000462565b60405180910390fd5b6001600160a01b038816620000ef5760405162461bcd60e51b8152600401620000bd90620004b6565b6001600160a01b038716620001185760405162461bcd60e51b8152600401620000bd90620003f0565b6001600160a01b038616620001415760405162461bcd60e51b8152600401620000bd9062000446565b6001600160a01b0385166200016a5760405162461bcd60e51b8152600401620000bd906200049a565b6001600160a01b038416620001935760405162461bcd60e51b8152600401620000bd906200047e565b6001600160a01b038316620001bc5760405162461bcd60e51b8152600401620000bd906200040c565b6001600160a01b038216620001e55760405162461bcd60e51b8152600401620000bd9062000429565b6001600160601b031960608a811b82166101805289811b82166101405288811b82166101605287811b821660a05286811b821660c05285811b821660e05284811b82166101005283901b16610120526001600160e81b031960e882901b166080526001600160a01b038781169087161060f81b6101c052600780546001600160801b031916670de0b6b3a7640000179055426101a081905262000297906200274f620002c8602090811b91909117901c565b600780546001600160801b03928316600160801b02921691909117905550620004d2975050505050505050565b3390565b806001600160801b03811681146200030f576040805162461bcd60e51b815260206004820152600560248201526409e8c6264760db1b604482015290519081900360640190fd5b919050565b80516001600160a01b03811681146200030f57600080fd5b60008060008060008060008060006101208a8c0312156200034b578485fd5b620003568a62000314565b98506200036660208b0162000314565b97506200037660408b0162000314565b96506200038660608b0162000314565b95506200039660808b0162000314565b9450620003a660a08b0162000314565b9350620003b660c08b0162000314565b9250620003c660e08b0162000314565b91506101008a015162ffffff81168114620003df578182fd5b809150509295985092959850929598565b602080825260029082015261219b60f11b604082015260600190565b60208082526003908201526204331360ec1b604082015260600190565b60208082526003908201526243313160e81b604082015260600190565b602080825260029082015261433760f01b604082015260600190565b60208082526002908201526110cd60f21b604082015260600190565b602080825260029082015261433960f01b604082015260600190565b602080825260029082015261086760f31b604082015260600190565b602080825260029082015261433560f01b604082015260600190565b60805160e81c60a05160601c60c05160601c60e05160601c6101005160601c6101205160601c6101405160601c6101605160601c6101805160601c6101a0516101c05160f81c615f2f620007016000398061465452806148f55250806115bc525080610af15280610bc95280610d3a52806113f9528061173c528061243c5280612ac65280612b9a5280613e765280614050528061411052806144d452806145945280614cd35280614d7e525080610ddf528061141d5280611b9952806124e15280612b6b52806135da52806136525280613897528061393f5280613b125280613eb85280613f6b52806144125280614d155280614dc0525080611a795280611d9f5280611de05280611ff352806121a6528061270f5280612f395280613d6452508061339352806134bb52806136ff52806145685280614769525080610d5b5280611d7b528061245d5280612ae75280613e97528061413f52806145c35280614cf45280614d9f525080610b125280610bea5280610d7c528061109e528061175d528061247e5280612b085280612bbb528061407f52806144f5525080610b545280610c2c5280610dbe52806114b1528061179f52806124c05280612b4a5280612bfd52806145375250806103535280610b335280610c0b5280610d9d5280610ebc528061177e528061249f5280612b295280612bdc5280613616528061368e52806137fa5280613ed952806145165280614d365280614de15250806113c152806135915250615f2f6000f3fe6080604052600436106103435760003560e01c80638456cb59116101b0578063b707ab99116100ec578063e74b981b11610095578063f2fde38b1161006f578063f2fde38b146108d0578063f90c3f27146108f0578063fbfc6bc014610905578063ff947525146109255761039b565b8063e74b981b14610888578063ed88c68e146108a8578063ee3189ff146108b05761039b565b8063d296d1f1116100c6578063d296d1f11461083e578063d52725841461085e578063de4a427a146108735761039b565b8063b707ab99146107e9578063c65a391d146107fe578063c9e77ee81461081e5761039b565b806391b8d34a116101595780639d4c9442116101335780639d4c944214610781578063a847e67414610796578063ac6cd5ef146107b6578063b6b55f25146107d65761039b565b806391b8d34a1461072c578063978bbdb91461074c57806397efa942146107615761039b565b80638cd21d7c1161018a5780638cd21d7c146106e25780638da5cb5b1461070257806391b4ded9146107175761039b565b80638456cb591461067d5780638632cb03146106925780638c64ea4a146106b25761039b565b806345596e2e1161027f57806372f5d98a116102285780637dc0d1d0116102025780637dc0d1d0146106295780637f07b1301461063e5780638146b09f1461065357806382564bca146106685761039b565b806372f5d98a146105c35780637691c4ac146105e55780637ca25184146106075761039b565b806363b38ae41161025957806363b38ae414610579578063713d517f1461058e578063715018a6146105ae5761039b565b806345596e2e1461052257806346904840146105425780634be2822c146105575761039b565b806324f5f531116102ec5780633fc8cef3116102c65780633fc8cef3146104ab5780634394318d146104cd578063441a3e70146104ed5780634468c0221461050d5761039b565b806324f5f53114610463578063377a19361461047857806339467918146104985761039b565b806315aded831161031d57806315aded83146104005780631bf7bf6c1461042d578063200f4b8d1461044e5761039b565b806307633669146103a057806310b9e583146103b5578063150b7a02146103ca5761039b565b3661039b57336001600160a01b037f000000000000000000000000000000000000000000000000000000000000000016146103995760405162461bcd60e51b815260040161039090615cc9565b60405180910390fd5b005b600080fd5b3480156103ac57600080fd5b5061039961093a565b3480156103c157600080fd5b50610399610a3d565b3480156103d657600080fd5b506103ea6103e5366004615662565b610bb0565b6040516103f79190615ad9565b60405180910390f35b34801561040c57600080fd5b5061042061041b36600461584f565b610bc1565b6040516103f79190615df3565b61044061043b366004615824565b610c58565b6040516103f7929190615dfc565b34801561045a57600080fd5b50610399610cef565b34801561046f57600080fd5b50610420610d22565b34801561048457600080fd5b5061042061049336600461584f565b610d32565b6104206104a6366004615824565b610e22565b3480156104b757600080fd5b506104c0610eba565b6040516103f79190615961565b3480156104d957600080fd5b506104206104e8366004615824565b610ede565b3480156104f957600080fd5b506103996105083660046157e0565b610f78565b34801561051957600080fd5b506104c061109c565b34801561052e57600080fd5b5061039961053d366004615781565b6110c0565b34801561054e57600080fd5b506104c06111bd565b34801561056357600080fd5b5061056c6111cc565b6040516103f79190615da5565b34801561058557600080fd5b506104206111e2565b34801561059a57600080fd5b506103996105a9366004615781565b6111e8565b3480156105ba57600080fd5b50610399611301565b3480156105cf57600080fd5b506105d86113bf565b6040516103f79190615de3565b3480156105f157600080fd5b506105fa6113e3565b6040516103f79190615ace565b34801561061357600080fd5b5061061c6113f1565b6040516103f79190615e0a565b34801561063557600080fd5b506104c06113f7565b34801561064a57600080fd5b506104c061141b565b34801561065f57600080fd5b5061039961143f565b34801561067457600080fd5b506104c06114af565b34801561068957600080fd5b506103996114d3565b34801561069e57600080fd5b506103996106ad366004615824565b61165c565b3480156106be57600080fd5b506106d26106cd366004615781565b6116e7565b6040516103f79493929190615a90565b3480156106ee57600080fd5b506104206106fd36600461584f565b611734565b34801561070e57600080fd5b506104c06117c3565b34801561072357600080fd5b506104206117d2565b34801561073857600080fd5b506103996107473660046157e0565b6117d8565b34801561075857600080fd5b506104206118d1565b34801561076d57600080fd5b5061039961077c366004615781565b6118d7565b34801561078d57600080fd5b506104c0611a77565b3480156107a257600080fd5b506105fa6107b1366004615781565b611a9b565b3480156107c257600080fd5b506103996107d1366004615781565b611b15565b6103996107e4366004615781565b611c6f565b3480156107f557600080fd5b506104c0611d79565b34801561080a57600080fd5b506103996108193660046157b1565b611d9d565b34801561082a57600080fd5b50610399610839366004615781565b611efb565b34801561084a57600080fd5b506104206108593660046157e0565b61208d565b34801561086a57600080fd5b5061056c6122f8565b34801561087f57600080fd5b50610420612307565b34801561089457600080fd5b506103996108a336600461562a565b61230d565b610399612410565b3480156108bc57600080fd5b506104206108cb36600461584f565b612434565b3480156108dc57600080fd5b506103996108eb36600461562a565b61250d565b3480156108fc57600080fd5b50610420612621565b34801561091157600080fd5b50610399610920366004615781565b612628565b34801561093157600080fd5b506105fa612746565b6109426127ad565b6001600160a01b03166109536117c3565b6001600160a01b0316146109ae576040805162461bcd60e51b815260206004820181905260248201527f4f776e61626c653a2063616c6c6572206973206e6f7420746865206f776e6572604482015290519081900360640190fd5b600854610100900460ff166109d55760405162461bcd60e51b815260040161039090615c1d565b60085460ff16156109f85760405162461bcd60e51b815260040161039090615b53565b6008805461ff00191690556040517fff2b959f2bcdb44c7ecb4b16dae055431019d7350607125cfc2b74a06632c90e90610a33903390615961565b60405180910390a1565b610a456127ad565b6001600160a01b0316610a566117c3565b6001600160a01b031614610ab1576040805162461bcd60e51b815260206004820181905260248201527f4f776e61626c653a2063616c6c6572206973206e6f7420746865206f776e6572604482015290519081900360640190fd5b60085460ff1615610ad45760405162461bcd60e51b815260040161039090615b53565b6008805460ff1961ff001990911661010017166001179055610b7d7f00000000000000000000000000000000000000000000000000000000000000007f00000000000000000000000000000000000000000000000000000000000000007f00000000000000000000000000000000000000000000000000000000000000007f00000000000000000000000000000000000000000000000000000000000000006101a460006127b1565b60048190556040517f574214b195bf5273a95bb4498e35cf1fde0ce327c727a95ec2ab359f7ba4e11a91610a3391615df3565b630a85bd0160e11b5b949350505050565b6000610c50827f00000000000000000000000000000000000000000000000000000000000000007f00000000000000000000000000000000000000000000000000000000000000007f00000000000000000000000000000000000000000000000000000000000000007f00000000000000000000000000000000000000000000000000000000000000006127de565b90505b919050565b6008546000908190610100900460ff1615610c855760405162461bcd60e51b815260040161039090615c39565b60026001541415610ccb576040805162461bcd60e51b815260206004820152601f6024820152600080516020615e59833981519152604482015290519081900360640190fd5b6002600155610cdf33868634876000612819565b6001805590969095509350505050565b600854610100900460ff1615610d175760405162461bcd60e51b815260040161039090615c39565b610d1f61296a565b50565b6000610d2c612a58565b90505b90565b6000610c50827f00000000000000000000000000000000000000000000000000000000000000007f00000000000000000000000000000000000000000000000000000000000000007f00000000000000000000000000000000000000000000000000000000000000007f00000000000000000000000000000000000000000000000000000000000000007f00000000000000000000000000000000000000000000000000000000000000007f0000000000000000000000000000000000000000000000000000000000000000600760009054906101000a90046001600160801b03166001600160801b0316612ee9565b600854600090610100900460ff1615610e4d5760405162461bcd60e51b815260040161039090615c39565b60026001541415610e93576040805162461bcd60e51b815260206004820152601f6024820152600080516020615e59833981519152604482015290519081900360640190fd5b60026001819055506000610eac33868634876001612819565b506001805595945050505050565b7f000000000000000000000000000000000000000000000000000000000000000081565b600854600090610100900460ff1615610f095760405162461bcd60e51b815260040161039090615c39565b60026001541415610f4f576040805162461bcd60e51b815260206004820152601f6024820152600080516020615e59833981519152604482015290519081900360640190fd5b6002600155610f5e8433612f2d565b610f6c338585856000613021565b60018055949350505050565b600854610100900460ff1615610fa05760405162461bcd60e51b815260040161039090615c39565b60026001541415610fe6576040805162461bcd60e51b815260206004820152601f6024820152600080516020615e59833981519152604482015290519081900360640190fd5b6002600155610ff58233612f2d565b6000610fff61296a565b600084815260096020908152604091829020825160808101845281546001600160a01b0381168252600160a01b900463ffffffff1692810192909252600101546001600160601b03811692820192909252600160601b9091046001600160801b0316606082015290915061107481858561310f565b61107e8183613159565b61108884826131ab565b611092338461327e565b5050600180555050565b7f000000000000000000000000000000000000000000000000000000000000000081565b6110c86127ad565b6001600160a01b03166110d96117c3565b6001600160a01b031614611134576040805162461bcd60e51b815260206004820181905260248201527f4f776e61626c653a2063616c6c6572206973206e6f7420746865206f776e6572604482015290519081900360640190fd5b6002546001600160a01b031661115c5760405162461bcd60e51b815260040161039090615afc565b606481111561117d5760405162461bcd60e51b815260040161039090615c55565b7f14914da2bf76024616fbe1859783fcd4dbddcb179b1f3a854949fbf920dcb957600354826040516111b0929190615dfc565b60405180910390a1600355565b6002546001600160a01b031681565b600754600160801b90046001600160801b031681565b60055481565b600854610100900460ff16156112105760405162461bcd60e51b815260040161039090615c39565b60026001541415611256576040805162461bcd60e51b815260206004820152601f6024820152600080516020615e59833981519152604482015290519081900360640190fd5b60026001556112658133612f2d565b600061126f61296a565b600083815260096020908152604091829020825160808101845281546001600160a01b0381168252600160a01b900463ffffffff1692810192909252600101546001600160601b03811692820192909252600160601b9091046001600160801b031660608201529091506112e4813385613368565b6112ee8183613159565b6112f883826131ab565b50506001805550565b6113096127ad565b6001600160a01b031661131a6117c3565b6001600160a01b031614611375576040805162461bcd60e51b815260206004820181905260248201527f4f776e61626c653a2063616c6c6572206973206e6f7420746865206f776e6572604482015290519081900360640190fd5b600080546040516001600160a01b03909116907f8be0079c531659141344cd1fd0a4f28419497f9722a3daafe3b4186f6b6457e0908390a3600080546001600160a01b0319169055565b7f000000000000000000000000000000000000000000000000000000000000000081565b600854610100900460ff1681565b6101a481565b7f000000000000000000000000000000000000000000000000000000000000000081565b7f000000000000000000000000000000000000000000000000000000000000000081565b600854610100900460ff166114665760405162461bcd60e51b815260040161039090615c1d565b60085460ff16156114895760405162461bcd60e51b815260040161039090615b53565b600654620151800142116109f85760405162461bcd60e51b815260040161039090615be3565b7f000000000000000000000000000000000000000000000000000000000000000081565b6114db6127ad565b6001600160a01b03166114ec6117c3565b6001600160a01b031614611547576040805162461bcd60e51b815260206004820181905260248201527f4f776e61626c653a2063616c6c6572206973206e6f7420746865206f776e6572604482015290519081900360640190fd5b60085460ff161561156a5760405162461bcd60e51b815260040161039090615b53565b600854610100900460ff16156115925760405162461bcd60e51b815260040161039090615c39565b6000600554116115b45760405162461bcd60e51b815260040161039090615b6f565b60006115e0427f000000000000000000000000000000000000000000000000000000000000000061343f565b905062eff10081106116045760405162461bcd60e51b815260040161039090615ce6565b6008805461ff001916610100179055600580546000190190819055426006556040517f32fb7c9891bc4f963c7de9f1186d2a7755c7d6e9f4604dabe1d8bb3027c2f49e9161165191615df3565b60405180910390a150565b600854610100900460ff16156116845760405162461bcd60e51b815260040161039090615c39565b600260015414156116ca576040805162461bcd60e51b815260206004820152601f6024820152600080516020615e59833981519152604482015290519081900360640190fd5b60026001556116d98333612f2d565b611092338484846001613021565b600960205260009081526040902080546001909101546001600160a01b03821691600160a01b900463ffffffff16906001600160601b03811690600160601b90046001600160801b031684565b6000610c50827f00000000000000000000000000000000000000000000000000000000000000007f00000000000000000000000000000000000000000000000000000000000000007f00000000000000000000000000000000000000000000000000000000000000007f00000000000000000000000000000000000000000000000000000000000000006134a1565b6000546001600160a01b031690565b60065481565b600854610100900460ff16156118005760405162461bcd60e51b815260040161039090615c39565b60026001541415611846576040805162461bcd60e51b815260206004820152601f6024820152600080516020615e59833981519152604482015290519081900360640190fd5b60026001556118558233612f2d565b61185d61296a565b50600082815260096020908152604091829020825160808101845281546001600160a01b0381168252600160a01b900463ffffffff1692810192909252600101546001600160601b03811692820192909252600160601b9091046001600160801b031660608201526112ee813385856134b3565b60035481565b60085460ff166118f95760405162461bcd60e51b815260040161039090615d03565b6002600154141561193f576040805162461bcd60e51b815260206004820152601f6024820152600080516020615e59833981519152604482015290519081900360640190fd5b600260015561194e8133612f2d565b6000818152600960209081526040808320815160808101835281546001600160a01b0381168252600160a01b900463ffffffff1693810193909352600101546001600160601b03811691830191909152600160601b90046001600160801b03908116606083015260075491929116906119cc908390339086906137af565b5060006119e983606001516001600160801b0316600454846139fa565b90506000611a0d8285604001516001600160601b031661343f90919063ffffffff16565b60006060860181905260408601529050611a2785856131ab565b611a31338261327e565b7f7dff8cdaec6a8d4d1ad32d3c947ed0f0281c3d6456621ef928defae96ec6cddb338683604051611a64939291906159d5565b60405180910390a1505060018055505050565b7f000000000000000000000000000000000000000000000000000000000000000081565b6000818152600960209081526040808320815160808101835281546001600160a01b0381168252600160a01b900463ffffffff1693810193909352600101546001600160601b03811691830191909152600160601b90046001600160801b0316606082015281611b09612a58565b9050610bb98282613a23565b60085460ff16611b375760405162461bcd60e51b815260040161039090615d03565b60026001541415611b7d576040805162461bcd60e51b815260206004820152601f6024820152600080516020615e59833981519152604482015290519081900360640190fd5b6002600155604051632770a7eb60e21b81526001600160a01b037f00000000000000000000000000000000000000000000000000000000000000001690639dc29fac90611bd09033908590600401615999565b600060405180830381600087803b158015611bea57600080fd5b505af1158015611bfe573d6000803e3d6000fd5b505060045460075460009350611c2092508491906001600160801b03166139fa565b9050611c2c338261327e565b7f2131ef4f2f82ca75fe7d2e646ebfa45b6be25e53510c829629c76b641500ec67338383604051611c5f939291906159d5565b60405180910390a1505060018055565b600854610100900460ff1615611c975760405162461bcd60e51b815260040161039090615c39565b60026001541415611cdd576040805162461bcd60e51b815260206004820152601f6024820152600080516020615e59833981519152604482015290519081900360640190fd5b6002600155611cec8133612f2d565b611cf461296a565b50600081815260096020908152604091829020825160808101845281546001600160a01b0381168252600160a01b900463ffffffff1692810192909252600101546001600160601b03811692820192909252600160601b9091046001600160801b03166060820152611d67818334613a39565b611d7182826131ab565b505060018055565b7f000000000000000000000000000000000000000000000000000000000000000081565b7f00000000000000000000000000000000000000000000000000000000000000006001600160a01b0316331480611e7857506040516331a9108f60e11b815233907f00000000000000000000000000000000000000000000000000000000000000006001600160a01b031690636352211e90611e1d908690600401615df3565b60206040518083038186803b158015611e3557600080fd5b505afa158015611e49573d6000803e3d6000fd5b505050506040513d601f19601f82011682018060405250810190611e6d9190615646565b6001600160a01b0316145b611e945760405162461bcd60e51b815260040161039090615b19565b6000828152600960205260409081902080546001600160a01b0319166001600160a01b038416179055517f3137fc9cd2e33c34f86e29c24d81f3c75b0bce639d3c4ed0d31eeff1160a7ff590611eef903390859085906159b2565b60405180910390a15050565b600854610100900460ff1615611f235760405162461bcd60e51b815260040161039090615c39565b60026001541415611f69576040805162461bcd60e51b815260206004820152601f6024820152600080516020615e59833981519152604482015290519081900360640190fd5b6002600155611f788133612f2d565b600081815260096020908152604091829020825160808101845281546001600160a01b038082168352600160a01b90910463ffffffff16938201939093526001909101546001600160601b03811682850152600160601b90046001600160801b0316606082015291516331a9108f60e11b81526120829183917f000000000000000000000000000000000000000000000000000000000000000090911690636352211e9061202a908790600401615df3565b60206040518083038186803b15801561204257600080fd5b505afa158015612056573d6000803e3d6000fd5b505050506040513d601f19601f8201168201806040525081019061207a9190615646565b8460006137af565b50611d7182826131ab565b600854600090610100900460ff16156120b85760405162461bcd60e51b815260040161039090615c39565b600260015414156120fe576040805162461bcd60e51b815260206004820152601f6024820152600080516020615e59833981519152604482015290519081900360640190fd5b6002600155600061210d61296a565b600085815260096020908152604091829020825160808101845281546001600160a01b0381168252600160a01b900463ffffffff1692810192909252600101546001600160601b03811692820192909252600160601b9091046001600160801b031660608201529091506121818183613a23565b1561219e5760405162461bcd60e51b815260040161039090615c72565b6000612248827f00000000000000000000000000000000000000000000000000000000000000006001600160a01b0316636352211e896040518263ffffffff1660e01b81526004016121f09190615df3565b60206040518083038186803b15801561220857600080fd5b505afa15801561221c573d6000803e3d6000fd5b505050506040513d601f19601f820116820180604052508101906122409190615646565b8860016137af565b90506122548284613a23565b156122795761226386836131ab565b61226d338261327e565b600093505050506122ee565b6122838282613a76565b60008061229284888733613aac565b915091507f158ba9ab7bbbd08eeffa4753bad41f4d450e24831d293427308badf3eadd8c76338984846040516122cb94939291906159f6565b60405180910390a16122dd88856131ab565b6122e7338261327e565b5093505050505b6001805592915050565b6007546001600160801b031681565b60045481565b6123156127ad565b6001600160a01b03166123266117c3565b6001600160a01b031614612381576040805162461bcd60e51b815260206004820181905260248201527f4f776e61626c653a2063616c6c6572206973206e6f7420746865206f776e6572604482015290519081900360640190fd5b6001600160a01b0381166123a75760405162461bcd60e51b815260040161039090615b8c565b6002546040517faaebcf1bfa00580e41d966056b48521fa9f202645c86d4ddf28113e617c1b1d3916123e6916001600160a01b03909116908490615a57565b60405180910390a1600280546001600160a01b0319166001600160a01b0392909216919091179055565b60085460ff166124325760405162461bcd60e51b815260040161039090615d03565b565b6000610c50827f00000000000000000000000000000000000000000000000000000000000000007f00000000000000000000000000000000000000000000000000000000000000007f00000000000000000000000000000000000000000000000000000000000000007f00000000000000000000000000000000000000000000000000000000000000007f00000000000000000000000000000000000000000000000000000000000000007f0000000000000000000000000000000000000000000000000000000000000000612508612a58565b612ee9565b6125156127ad565b6001600160a01b03166125266117c3565b6001600160a01b031614612581576040805162461bcd60e51b815260206004820181905260248201527f4f776e61626c653a2063616c6c6572206973206e6f7420746865206f776e6572604482015290519081900360640190fd5b6001600160a01b0381166125c65760405162461bcd60e51b8152600401808060200182810382526026815260200180615e796026913960400191505060405180910390fd5b600080546040516001600160a01b03808516939216917f8be0079c531659141344cd1fd0a4f28419497f9722a3daafe3b4186f6b6457e091a3600080546001600160a01b0319166001600160a01b0392909216919091179055565b6217124081565b60085460ff1661264a5760405162461bcd60e51b815260040161039090615d03565b60026001541415612690576040805162461bcd60e51b815260206004820152601f6024820152600080516020615e59833981519152604482015290519081900360640190fd5b60026001908155600082815260096020908152604091829020825160808101845281546001600160a01b038082168352600160a01b90910463ffffffff16938201939093529301546001600160601b03811684840152600160601b90046001600160801b0316606084015290516331a9108f60e11b81526120829183917f000000000000000000000000000000000000000000000000000000000000000090911690636352211e9061202a908790600401615df3565b60085460ff1681565b806001600160801b0381168114610c53576040805162461bcd60e51b815260206004820152600560248201527f4f46313238000000000000000000000000000000000000000000000000000000604482015290519081900360640190fd5b3390565b6000806127c2888888888888613bd3565b90506127d081612710613c79565b9150505b9695505050505050565b6000806127f0868686868b6000613bd3565b905061280e670de0b6b3a76400006128088380613ce0565b90613c79565b979650505050505050565b600080600061282661296a565b90508560008561284b57612846836128088b670de0b6b3a7640000613ce0565b61284d565b885b905060006128596155bc565b8b612871576128678d613d40565b909c5090506128e4565b61287b8c33612f2d565b5060008b815260096020908152604091829020825160808101845281546001600160a01b0381168252600160a01b900463ffffffff1692810192909252600101546001600160601b03811692820192909252600160601b9091046001600160801b031660608201525b8215612905576128f581848c613e53565b94509150612905818e8e86613f4a565b891561291657612916818d86613a39565b881561292857612928818e8e8c6134b3565b6129328186613159565b61293c8c826131ab565b811561295857600254612958906001600160a01b03168361327e565b50999b909a5098505050505050505050565b6007546000906001600160801b03600160801b9091041642141561299a57506007546001600160801b0316610d2f565b60006129a4612a58565b6007546040519192507f339e53729b0447795ff69e70a74fed98fc7fef6fe94b7521099b32f0f8de4822916129f3916001600160801b03808216928692600160801b9004909116904290615db9565b60405180910390a1612a048161274f565b600780546fffffffffffffffffffffffffffffffff19166001600160801b0392909216919091179055612a364261274f565b600780546001600160801b03928316600160801b029216919091179055905090565b6007546000908190612a8490612a7f904290600160801b90046001600160801b031661343f565b614007565b905063ffffffff8116612aa45750506007546001600160801b0316610d2f565b6000612aaf8261404b565b6007549091506001600160801b03166000612b90837f00000000000000000000000000000000000000000000000000000000000000007f00000000000000000000000000000000000000000000000000000000000000007f00000000000000000000000000000000000000000000000000000000000000007f00000000000000000000000000000000000000000000000000000000000000007f00000000000000000000000000000000000000000000000000000000000000007f000000000000000000000000000000000000000000000000000000000000000089612ee9565b90506000612c21847f00000000000000000000000000000000000000000000000000000000000000007f00000000000000000000000000000000000000000000000000000000000000007f00000000000000000000000000000000000000000000000000000000000000007f00000000000000000000000000000000000000000000000000000000000000006134a1565b9050600073E1C948230FBAABbF83116CFE4702A40144F8440863fc505d3787621712406040518363ffffffff1660e01b8152600401612c61929190615e1b565b60206040518083038186803b158015612c7957600080fd5b505af4158015612c8d573d6000803e3d6000fd5b505050506040513d601f19601f82011682018060405250810190612cb19190615746565b90506000612cd3670de0b6b3a764000061280885670b1a2bc2ec500000613ce0565b905080841015612ce557809350612d15565b6000612d05670de0b6b3a76400006128088667136dcc951d8c0000613ce0565b905080851115612d13578094505b505b60405163fc505d3760e01b815260009073E1C948230FBAABbF83116CFE4702A40144F844089063fc505d3790612d519087908990600401615dfc565b60206040518083038186803b158015612d6957600080fd5b505af4158015612d7d573d6000803e3d6000fd5b505050506040513d601f19601f82011682018060405250810190612da19190615746565b90506000612e398473E1C948230FBAABbF83116CFE4702A40144F84408632cbbdee5856040518263ffffffff1660e01b8152600401612de09190615aee565b60206040518083038186803b158015612df857600080fd5b505af4158015612e0c573d6000803e3d6000fd5b505050506040513d601f19601f82011682018060405250810190612e309190615746565b600f0b9061420f565b604051637e0c9e7960e11b815290915060009073E1C948230FBAABbF83116CFE4702A40144F844089063fc193cf290612e7a90600f86900b90600401615aee565b60206040518083038186803b158015612e9257600080fd5b505af4158015612ea6573d6000803e3d6000fd5b505050506040513d601f19601f82011682018060405250810190612eca9190615746565b9050612eda600f82900b896142a0565b9a505050505050505050505090565b600080612efb898888888e60006127b1565b90506000612f0e8a8a878a8f6000613bd3565b9050612f1e846128088385613ce0565b9b9a5050505050505050505050565b806001600160a01b03167f00000000000000000000000000000000000000000000000000000000000000006001600160a01b0316636352211e846040518263ffffffff1660e01b8152600401612f839190615df3565b60206040518083038186803b158015612f9b57600080fd5b505afa158015612faf573d6000803e3d6000fd5b505050506040513d601f19601f82011682018060405250810190612fd39190615646565b6001600160a01b0316148061300157506000828152600960205260409020546001600160a01b038281169116145b61301d5760405162461bcd60e51b815260040161039090615b19565b5050565b60008061302c61296a565b90506000836130505761304b8261280888670de0b6b3a7640000613ce0565b613052565b855b600088815260096020908152604091829020825160808101845281546001600160a01b0381168252600160a01b900463ffffffff1692810192909252600101546001600160601b03811692820192909252600160601b9091046001600160801b0316606082015290915081156130ce576130ce818a8a856143f1565b85156130df576130df81898861310f565b6130e98184613159565b6130f388826131ab565b851561310357613103338761327e565b50979650505050505050565b61311983826144ae565b7f627a692d5a03ab34732c0d2aa319f3ecdebdc4528f383eabcb25441dc0a70cfb33838360405161314c939291906159d5565b60405180910390a1505050565b60008061316684846144ca565b91509150816131875760405162461bcd60e51b815260040161039090615c8f565b80156131a55760405162461bcd60e51b815260040161039090615cac565b50505050565b600091825260096020908152604092839020825181549284015163ffffffff16600160a01b027fffffffffffffffff00000000ffffffffffffffffffffffffffffffffffffffff6001600160a01b039092166001600160a01b0319909416939093171691909117815591810151600190920180546060909201516001600160801b0316600160601b027fffffffff00000000000000000000000000000000ffffffffffffffffffffffff6001600160601b039094166bffffffffffffffffffffffff199093169290921792909216179055565b804710156132d3576040805162461bcd60e51b815260206004820152601d60248201527f416464726573733a20696e73756666696369656e742062616c616e6365000000604482015290519081900360640190fd5b6040516000906001600160a01b0384169083908381818185875af1925050503d806000811461331e576040519150601f19603f3d011682016040523d82523d6000602084013e613323565b606091505b50509050806133635760405162461bcd60e51b815260040180806020018281038252603a815260200180615e9f603a913960400191505060405180910390fd5b505050565b602083015163ffffffff1661337c84614684565b604051632142170760e11b81526001600160a01b037f000000000000000000000000000000000000000000000000000000000000000016906342842e0e906133cc90309087908690600401615975565b600060405180830381600087803b1580156133e657600080fd5b505af11580156133fa573d6000803e3d6000fd5b505050507fe59f38fa1264fc25c9f0185eee136eaf810d90b8e7293b342e4037c68720177a338383604051613431939291906159d5565b60405180910390a150505050565b600082821115613496576040805162461bcd60e51b815260206004820152601e60248201527f536166654d6174683a207375627472616374696f6e206f766572666c6f770000604482015290519081900360640190fd5b508082035b92915050565b6000806127f0868686868b60006127b1565b6000806000807f00000000000000000000000000000000000000000000000000000000000000006001600160a01b03166399fbab88866040518263ffffffff1660e01b81526004016135059190615df3565b6101806040518083038186803b15801561351e57600080fd5b505afa158015613532573d6000803e3d6000fd5b505050506040513d601f19601f820116820180604052508101906135569190615887565b505050509750505095509550955050506000816001600160801b03161161358f5760405162461bcd60e51b815260040161039090615bc6565b7f000000000000000000000000000000000000000000000000000000000000000062ffffff168262ffffff16146135d85760405162461bcd60e51b815260040161039090615b36565b7f00000000000000000000000000000000000000000000000000000000000000006001600160a01b0316846001600160a01b031614801561364a57507f00000000000000000000000000000000000000000000000000000000000000006001600160a01b0316836001600160a01b0316145b806136c257507f00000000000000000000000000000000000000000000000000000000000000006001600160a01b0316836001600160a01b03161480156136c257507f00000000000000000000000000000000000000000000000000000000000000006001600160a01b0316846001600160a01b0316145b6136de5760405162461bcd60e51b815260040161039090615ba9565b6136e888866146cf565b604051632142170760e11b81526001600160a01b037f000000000000000000000000000000000000000000000000000000000000000016906342842e0e90613738908a9030908a90600401615975565b600060405180830381600087803b15801561375257600080fd5b505af1158015613766573d6000803e3d6000fd5b505050507f3917c2f26ce18614e3aedd1289da672ef6563c5c295f49e9b1697ae0ad31556233878760405161379d939291906159d5565b60405180910390a15050505050505050565b602084015160009063ffffffff16806137cc576000915050610bb9565b6000806137d883614764565b9092509050811561386257604051632e1a7d4d60e01b81526001600160a01b037f00000000000000000000000000000000000000000000000000000000000000001690632e1a7d4d9061382f908590600401615df3565b600060405180830381600087803b15801561384957600080fd5b505af115801561385d573d6000803e3d6000fd5b505050505b60008060006138738b86868b614931565b9194509250905081156139225760405163a9059cbb60e01b81526001600160a01b037f0000000000000000000000000000000000000000000000000000000000000000169063a9059cbb906138ce908d908690600401615999565b602060405180830381600087803b1580156138e857600080fd5b505af11580156138fc573d6000803e3d6000fd5b505050506040513d601f19601f820116820180604052508101906139209190615726565b505b82156139a957604051632770a7eb60e21b81526001600160a01b037f00000000000000000000000000000000000000000000000000000000000000001690639dc29fac906139769030908790600401615999565b600060405180830381600087803b15801561399057600080fd5b505af11580156139a4573d6000803e3d6000fd5b505050505b7ffd0ae2fd36bd955810ae42615bc5ff277c0d0dfcb930f06c9f1777c0ef0752e3338a87878787876040516139e49796959493929190615a1c565b60405180910390a19a9950505050505050505050565b6000610bb96ec097ce7bc90715b34b9f100000000061280885613a1d8887613ce0565b90613ce0565b600080613a3084846144ca565b50949350505050565b613a438382613a76565b7f3ca13b7aab12bad7472691fe558faa6b25e99099824a0070a88bd5aa84be610f33838360405161314c939291906159d5565b6040820151613a9790613a92906001600160601b0316836149c7565b614a21565b6001600160601b031660409092019190915250565b600080600080613ad78789606001516001600160801b03168a604001516001600160601b0316614a68565b9150915081871015613afb5760405162461bcd60e51b815260040161039090615c00565b604051632770a7eb60e21b81526001600160a01b037f00000000000000000000000000000000000000000000000000000000000000001690639dc29fac90613b499088908690600401615999565b600060405180830381600087803b158015613b6357600080fd5b505af1158015613b77573d6000803e3d6000fd5b50505050613b8e8289614ad090919063ffffffff16565b613b9888826144ae565b6000613ba489886144ca565b9150508015613bc55760405162461bcd60e51b815260040161039090615cac565b509097909650945050505050565b6040805163cce79bd560e01b81526001600160a01b0387811660048301528681166024830152858116604483015263ffffffff851660648301528315156084830152915160009289169163cce79bd59160a4808301926020929190829003018186803b158015613c4257600080fd5b505afa158015613c56573d6000803e3d6000fd5b505050506040513d6020811015613c6c57600080fd5b5051979650505050505050565b6000808211613ccf576040805162461bcd60e51b815260206004820152601a60248201527f536166654d6174683a206469766973696f6e206279207a65726f000000000000604482015290519081900360640190fd5b818381613cd857fe5b049392505050565b600082613cef5750600061349b565b82820282848281613cfc57fe5b0414613d395760405162461bcd60e51b8152600401808060200182810382526021815260200180615ed96021913960400191505060405180910390fd5b9392505050565b6000613d4a6155bc565b6040516354ba0f2760e01b81526000906001600160a01b037f000000000000000000000000000000000000000000000000000000000000000016906354ba0f2790613d99908790600401615961565b602060405180830381600087803b158015613db357600080fd5b505af1158015613dc7573d6000803e3d6000fd5b505050506040513d601f19601f82011682018060405250810190613deb9190615799565b6040805160808101825260008082526020820181905281830181905260608201529051919250907f25ff1e0131762176a9084e92880f880f39d6d0e62134607f37e631efe1bad87190613e419033908590615999565b60405180910390a19092509050915091565b600354600090819080613e6d576000849250925050613f42565b600080613efd877f00000000000000000000000000000000000000000000000000000000000000007f00000000000000000000000000000000000000000000000000000000000000007f00000000000000000000000000000000000000000000000000000000000000007f0000000000000000000000000000000000000000000000000000000000000000614b06565b90506000613f116127106128088487613ce0565b905080871115613f2c57613f25878261343f565b9250613f3a565b613f3689826144ae565b8692505b945090925050505b935093915050565b613f548482614b32565b6040516340c10f1960e01b81526001600160a01b037f000000000000000000000000000000000000000000000000000000000000000016906340c10f1990613fa29086908590600401615999565b600060405180830381600087803b158015613fbc57600080fd5b505af1158015613fd0573d6000803e3d6000fd5b505050507fb19fa182730a088464dad0e9e0badeb470d0d8d937d854f5caf15c6ad1992c36338284604051613431939291906159d5565b8063ffffffff81168114610c53576040805162461bcd60e51b8152602060048083019190915260248201526327a3199960e11b604482015290519081900360640190fd5b6000807f00000000000000000000000000000000000000000000000000000000000000006001600160a01b031663de5a6e227f00000000000000000000000000000000000000000000000000000000000000006040518263ffffffff1660e01b81526004016140ba9190615961565b60206040518083038186803b1580156140d257600080fd5b505afa1580156140e6573d6000803e3d6000fd5b505050506040513d601f19601f8201168201806040525081019061410a919061586b565b905060007f00000000000000000000000000000000000000000000000000000000000000006001600160a01b031663de5a6e227f00000000000000000000000000000000000000000000000000000000000000006040518263ffffffff1660e01b815260040161417a9190615961565b60206040518083038186803b15801561419257600080fd5b505afa1580156141a6573d6000803e3d6000fd5b505050506040513d601f19601f820116820180604052508101906141ca919061586b565b905060008163ffffffff168363ffffffff16116141e757826141e9565b815b90508063ffffffff168563ffffffff16116142045784614206565b805b95945050505050565b6000600f83810b9083900b0260401d6f7fffffffffffffffffffffffffffffff19811280159061424f57506f7fffffffffffffffffffffffffffffff8113155b613d39576040805162461bcd60e51b815260206004820152600860248201527f4d554c2d4f565546000000000000000000000000000000000000000000000000604482015290519081900360640190fd5b6000816142af5750600061349b565b600083600f0b1215614308576040805162461bcd60e51b815260206004820152600760248201527f4d554c552d583000000000000000000000000000000000000000000000000000604482015290519081900360640190fd5b600f83900b6001600160801b038316810260401c90608084901c0277ffffffffffffffffffffffffffffffffffffffffffffffff811115614390576040805162461bcd60e51b815260206004820152600860248201527f4d554c552d4f4631000000000000000000000000000000000000000000000000604482015290519081900360640190fd5b60401b81198111156143e9576040805162461bcd60e51b815260206004820152600860248201527f4d554c552d4f4632000000000000000000000000000000000000000000000000604482015290519081900360640190fd5b019392505050565b6143fb8482614ad0565b604051632770a7eb60e21b81526001600160a01b037f00000000000000000000000000000000000000000000000000000000000000001690639dc29fac906144499086908590600401615999565b600060405180830381600087803b15801561446357600080fd5b505af1158015614477573d6000803e3d6000fd5b505050507fea19ffc45b48de6d95594aacff7214dd24595fdb0c60e98c8f0b269058c2f792338284604051613431939291906159d5565b6040820151613a9790613a92906001600160601b03168361343f565b60008060006145607f00000000000000000000000000000000000000000000000000000000000000007f00000000000000000000000000000000000000000000000000000000000000007f00000000000000000000000000000000000000000000000000000000000000007f00000000000000000000000000000000000000000000000000000000000000006101a460016127b1565b9050614678857f000000000000000000000000000000000000000000000000000000000000000086846706f05b59d3b200007f00000000000000000000000000000000000000000000000000000000000000006001600160a01b0316634a0a96eb7f00000000000000000000000000000000000000000000000000000000000000006101a46040518363ffffffff1660e01b8152600401614602929190615a71565b60206040518083038186803b15801561461a57600080fd5b505afa15801561462e573d6000803e3d6000fd5b505050506040513d601f19601f820116820180604052508101906146529190615767565b7f0000000000000000000000000000000000000000000000000000000000000000614b4e565b92509250509250929050565b602081015163ffffffff166146c5576040805162461bcd60e51b81526020600482015260026024820152612b1960f11b604482015290519081900360640190fd5b6000602090910152565b602082015163ffffffff1615614711576040805162461bcd60e51b8152602060048201526002602482015261563160f01b604482015290519081900360640190fd5b80614749576040805162461bcd60e51b815260206004820152600360248201526243323360e81b604482015290519081900360640190fd5b61475281614007565b63ffffffff1660209092019190915250565b6000807f0000000000000000000000000000000000000000000000000000000000000000816147938286614bf2565b50506040805160a0810182528981526001600160801b0383166020820152600081830181905260608201524260808201529051630624e65f60e11b815291945092506001600160a01b0385169150630c49ccbe906147f5908490600401615d62565b6040805180830381600087803b15801561480e57600080fd5b505af1158015614822573d6000803e3d6000fd5b505050506040513d601f19601f820116820180604052508101906148469190615801565b5050604080516080810182528781523060208201526001600160801b038183018190526060820152905163fc6f786560e01b815260009081906001600160a01b0387169063fc6f78659061489e908690600401615d1f565b6040805180830381600087803b1580156148b757600080fd5b505af11580156148cb573d6000803e3d6000fd5b505050506040513d601f19601f820116820180604052508101906148ef9190615801565b915091507f000000000000000000000000000000000000000000000000000000000000000061491f578082614922565b81815b97509750505050505050915091565b600080600080841561494a576149478787614cb0565b90505b606088015186906000906001600160801b03168211156149905760608a015161497d9089906001600160801b031661343f565b905089606001516001600160801b031691505b61499a8a83614ad0565b6149a38a614684565b6149ad8a8a613a76565b6149b78a846144ae565b9099909850909650945050505050565b600082820183811015613d39576040805162461bcd60e51b815260206004820152601b60248201527f536166654d6174683a206164646974696f6e206f766572666c6f770000000000604482015290519081900360640190fd5b806001600160601b0381168114610c53576040805162461bcd60e51b8152602060048083019190915260248201526327a31c9b60e11b604482015290519081900360640190fd5b6000808080614a8187614a7c886002613c79565b614d60565b9150915080851115614ab6576706f05b59d3b20000614aa0868361343f565b1015614ab657614ab08787614d60565b90925090505b84811115614ac45750849050835b90969095509350505050565b6060820151614af190614aec906001600160801b03168361343f565b61274f565b6001600160801b031660609092019190915250565b600080614b1a868686866101a46000613bd3565b905061280e670de0b6b3a76400006128088984613ce0565b6060820151614af190614aec906001600160801b0316836149c7565b60008088606001516001600160801b031660001415614b735750600190506000614be6565b6000614bac6ec097ce7bc90715b34b9f100000000061280889613a1d8c8f606001516001600160801b0316613ce090919063ffffffff16565b90506000614bbe8b8b8b8b8a8a614e3c565b90508681106000614bd0846003613ce0565b614bdb846002613ce0565b101595509093505050505b97509795505050505050565b6000806000806000808790506000806000806000856001600160a01b03166399fbab888d6040518263ffffffff1660e01b8152600401808281526020019150506101806040518083038186803b158015614c4b57600080fd5b505afa158015614c5f573d6000803e3d6000fd5b505050506040513d610180811015614c7657600080fd5b5060a081015160c082015160e083015161014084015161016090940151929e50909c509a5090985096505050505050509295509295909350565b6000613d39670de0b6b3a764000061280866470de4df820000613a1d87614d5a887f00000000000000000000000000000000000000000000000000000000000000007f00000000000000000000000000000000000000000000000000000000000000007f00000000000000000000000000000000000000000000000000000000000000007f0000000000000000000000000000000000000000000000000000000000000000614b06565b906149c7565b6000806000838511614d725784614d74565b835b90506000614e05827f00000000000000000000000000000000000000000000000000000000000000007f00000000000000000000000000000000000000000000000000000000000000007f00000000000000000000000000000000000000000000000000000000000000007f0000000000000000000000000000000000000000000000000000000000000000614b06565b9050614e2f614e28670de0b6b3a76400006128088467016345785d8a0000613ce0565b82906149c7565b9196919550909350505050565b6000866020015163ffffffff1660001415614e65575060408601516001600160601b03166127d4565b600080614e7e888a6020015163ffffffff168787614ed3565b90925090506000614ea66ec097ce7bc90715b34b9f100000000061280889613a1d868d613ce0565b60408b0151909150614ec5906001600160601b0316614d5a85846149c7565b9a9950505050505050505050565b6000806000806000806000614ee88b8b614bf2565b94509450945094509450600080614f0187878d88614f54565b9150915089614f2757826001600160801b03168101846001600160801b03168301614f40565b836001600160801b03168201836001600160801b031682015b985098505050505050505094509492505050565b60008060007384eba0b32bAA7Cb69963C5a73FAedFD4410692b263986cfba3866040518263ffffffff1660e01b8152600401808260020b815260200191505060206040518083038186803b158015614fab57600080fd5b505af4158015614fbf573d6000803e3d6000fd5b505050506040513d6020811015614fd557600080fd5b50519050600287810b9086900b121561519857735394886BCc8a1996858DD771ea934BB49eb76bBB632c32d4b67384eba0b32bAA7Cb69963C5a73FAedFD4410692b263986cfba38a6040518263ffffffff1660e01b8152600401808260020b815260200191505060206040518083038186803b15801561505457600080fd5b505af4158015615068573d6000803e3d6000fd5b505050506040513d602081101561507e57600080fd5b50516040805163986cfba360e01b815260028b900b600482015290517384eba0b32bAA7Cb69963C5a73FAedFD4410692b29163986cfba3916024808301926020929190829003018186803b1580156150d557600080fd5b505af41580156150e9573d6000803e3d6000fd5b505050506040513d60208110156150ff57600080fd5b5051604080516001600160e01b031960e086901b1681526001600160a01b0393841660048201529290911660248301526001600160801b038816604483015260016064830152516084808301926020929190829003018186803b15801561516557600080fd5b505af4158015615179573d6000803e3d6000fd5b505050506040513d602081101561518f57600080fd5b505192506155b2565b8560020b8560020b121561540657735394886BCc8a1996858DD771ea934BB49eb76bBB632c32d4b6827384eba0b32bAA7Cb69963C5a73FAedFD4410692b263986cfba38a6040518263ffffffff1660e01b8152600401808260020b815260200191505060206040518083038186803b15801561521357600080fd5b505af4158015615227573d6000803e3d6000fd5b505050506040513d602081101561523d57600080fd5b5051604080516001600160e01b031960e086901b1681526001600160a01b0393841660048201529290911660248301526001600160801b038816604483015260016064830152516084808301926020929190829003018186803b1580156152a357600080fd5b505af41580156152b7573d6000803e3d6000fd5b505050506040513d60208110156152cd57600080fd5b50516040805163986cfba360e01b815260028a900b60048201529051919450735394886BCc8a1996858DD771ea934BB49eb76bBB916348a0c5bd917384eba0b32bAA7Cb69963C5a73FAedFD4410692b29163986cfba391602480820192602092909190829003018186803b15801561534457600080fd5b505af4158015615358573d6000803e3d6000fd5b505050506040513d602081101561536e57600080fd5b5051604080516001600160e01b031960e085901b1681526001600160a01b03928316600482015291851660248301526001600160801b038816604483015260016064830152516084808301926020929190829003018186803b1580156153d357600080fd5b505af41580156153e7573d6000803e3d6000fd5b505050506040513d60208110156153fd57600080fd5b505191506155b2565b735394886BCc8a1996858DD771ea934BB49eb76bBB6348a0c5bd7384eba0b32bAA7Cb69963C5a73FAedFD4410692b263986cfba38a6040518263ffffffff1660e01b8152600401808260020b815260200191505060206040518083038186803b15801561547257600080fd5b505af4158015615486573d6000803e3d6000fd5b505050506040513d602081101561549c57600080fd5b50516040805163986cfba360e01b815260028b900b600482015290517384eba0b32bAA7Cb69963C5a73FAedFD4410692b29163986cfba3916024808301926020929190829003018186803b1580156154f357600080fd5b505af4158015615507573d6000803e3d6000fd5b505050506040513d602081101561551d57600080fd5b5051604080516001600160e01b031960e086901b1681526001600160a01b0393841660048201529290911660248301526001600160801b038816604483015260016064830152516084808301926020929190829003018186803b15801561558357600080fd5b505af4158015615597573d6000803e3d6000fd5b505050506040513d60208110156155ad57600080fd5b505191505b5094509492505050565b60408051608081018252600080825260208201819052918101829052606081019190915290565b8051610c5381615e31565b8051600281900b8114610c5357600080fd5b80516001600160801b0381168114610c5357600080fd5b805162ffffff81168114610c5357600080fd5b60006020828403121561563b578081fd5b8135613d3981615e31565b600060208284031215615657578081fd5b8151613d3981615e31565b60008060008060808587031215615677578283fd5b843561568281615e31565b935060208581013561569381615e31565b935060408601359250606086013567ffffffffffffffff808211156156b6578384fd5b818801915088601f8301126156c9578384fd5b8135818111156156d557fe5b604051601f8201601f19168101850183811182821017156156f257fe5b60405281815283820185018b1015615708578586fd5b81858501868301379081019093019390935250939692955090935050565b600060208284031215615737578081fd5b81518015158114613d39578182fd5b600060208284031215615757578081fd5b815180600f0b8114613d39578182fd5b600060208284031215615778578081fd5b613d39826155ee565b600060208284031215615792578081fd5b5035919050565b6000602082840312156157aa578081fd5b5051919050565b600080604083850312156157c3578182fd5b8235915060208301356157d581615e31565b809150509250929050565b600080604083850312156157f2578182fd5b50508035926020909101359150565b60008060408385031215615813578182fd5b505080516020909101519092909150565b600080600060608486031215615838578283fd5b505081359360208301359350604090920135919050565b600060208284031215615860578081fd5b8135613d3981615e46565b60006020828403121561587c578081fd5b8151613d3981615e46565b6000806000806000806000806000806000806101808d8f0312156158a957898afd5b8c516001600160601b03811681146158bf578a8bfd5b9b506158cd60208e016155e3565b9a506158db60408e016155e3565b99506158e960608e016155e3565b98506158f760808e01615617565b975061590560a08e016155ee565b965061591360c08e016155ee565b955061592160e08e01615600565b94506101008d015193506101208d015192506159406101408e01615600565b915061594f6101608e01615600565b90509295989b509295989b509295989b565b6001600160a01b0391909116815260200190565b6001600160a01b039384168152919092166020820152604081019190915260600190565b6001600160a01b03929092168252602082015260400190565b6001600160a01b0393841681526020810192909252909116604082015260600190565b6001600160a01b039390931683526020830191909152604082015260600190565b6001600160a01b0394909416845260208401929092526040830152606082015260800190565b6001600160a01b03979097168752602087019590955260408601939093526060850191909152608084015260a083015260c082015260e00190565b6001600160a01b0392831681529116602082015260400190565b6001600160a01b0392909216825263ffffffff16602082015260400190565b6001600160a01b0394909416845263ffffffff9290921660208401526001600160601b031660408301526001600160801b0316606082015260800190565b901515815260200190565b6001600160e01b031991909116815260200190565b600f9190910b815260200190565b60208082526003908201526210cc4d60ea1b604082015260600190565b60208082526003908201526204332360ec1b604082015260600190565b60208082526003908201526221991b60e91b604082015260600190565b602080825260029082015261219960f11b604082015260600190565b60208082526003908201526221989b60e91b604082015260600190565b60208082526003908201526243313360e81b604082015260600190565b60208082526003908201526243323360e81b604082015260600190565b60208082526003908201526243323560e81b604082015260600190565b60208082526003908201526208662760eb1b604082015260600190565b60208082526003908201526243323160e81b604082015260600190565b602080825260029082015261433160f01b604082015260600190565b602080825260029082015261043360f41b604082015260600190565b60208082526003908201526243313560e81b604082015260600190565b60208082526003908201526221989960e91b604082015260600190565b60208082526003908201526210cc8d60ea1b604082015260600190565b60208082526003908201526221991960e91b604082015260600190565b60208082526003908201526243313960e81b604082015260600190565b60208082526003908201526243313760e81b604082015260600190565b602080825260029082015261433360f01b604082015260600190565b815181526020808301516001600160a01b0316908201526040808301516001600160801b0390811691830191909152606092830151169181019190915260800190565b600060a082019050825182526001600160801b03602084015116602083015260408301516040830152606083015160608301526080830151608083015292915050565b6001600160801b0391909116815260200190565b6001600160801b039485168152602081019390935292166040820152606081019190915260800190565b62ffffff91909116815260200190565b90815260200190565b918252602082015260400190565b63ffffffff91909116815260200190565b63ffffffff929092168252602082015260400190565b6001600160a01b0381168114610d1f57600080fd5b63ffffffff81168114610d1f57600080fdfe5265656e7472616e637947756172643a207265656e7472616e742063616c6c004f776e61626c653a206e6577206f776e657220697320746865207a65726f2061646472657373416464726573733a20756e61626c6520746f2073656e642076616c75652c20726563697069656e74206d61792068617665207265766572746564536166654d6174683a206d756c7469706c69636174696f6e206f766572666c6f77a26469706673582212204b29ba1e910dbac720c73a4f3df7cdbb845900bdc285710f409d9a810367cc2c64736f6c63430007060033",
  "deployedBytecode": "0x6080604052600436106103435760003560e01c80638456cb59116101b0578063b707ab99116100ec578063e74b981b11610095578063f2fde38b1161006f578063f2fde38b146108d0578063f90c3f27146108f0578063fbfc6bc014610905578063ff947525146109255761039b565b8063e74b981b14610888578063ed88c68e146108a8578063ee3189ff146108b05761039b565b8063d296d1f1116100c6578063d296d1f11461083e578063d52725841461085e578063de4a427a146108735761039b565b8063b707ab99146107e9578063c65a391d146107fe578063c9e77ee81461081e5761039b565b806391b8d34a116101595780639d4c9442116101335780639d4c944214610781578063a847e67414610796578063ac6cd5ef146107b6578063b6b55f25146107d65761039b565b806391b8d34a1461072c578063978bbdb91461074c57806397efa942146107615761039b565b80638cd21d7c1161018a5780638cd21d7c146106e25780638da5cb5b1461070257806391b4ded9146107175761039b565b80638456cb591461067d5780638632cb03146106925780638c64ea4a146106b25761039b565b806345596e2e1161027f57806372f5d98a116102285780637dc0d1d0116102025780637dc0d1d0146106295780637f07b1301461063e5780638146b09f1461065357806382564bca146106685761039b565b806372f5d98a146105c35780637691c4ac146105e55780637ca25184146106075761039b565b806363b38ae41161025957806363b38ae414610579578063713d517f1461058e578063715018a6146105ae5761039b565b806345596e2e1461052257806346904840146105425780634be2822c146105575761039b565b806324f5f531116102ec5780633fc8cef3116102c65780633fc8cef3146104ab5780634394318d146104cd578063441a3e70146104ed5780634468c0221461050d5761039b565b806324f5f53114610463578063377a19361461047857806339467918146104985761039b565b806315aded831161031d57806315aded83146104005780631bf7bf6c1461042d578063200f4b8d1461044e5761039b565b806307633669146103a057806310b9e583146103b5578063150b7a02146103ca5761039b565b3661039b57336001600160a01b037f000000000000000000000000000000000000000000000000000000000000000016146103995760405162461bcd60e51b815260040161039090615cc9565b60405180910390fd5b005b600080fd5b3480156103ac57600080fd5b5061039961093a565b3480156103c157600080fd5b50610399610a3d565b3480156103d657600080fd5b506103ea6103e5366004615662565b610bb0565b6040516103f79190615ad9565b60405180910390f35b34801561040c57600080fd5b5061042061041b36600461584f565b610bc1565b6040516103f79190615df3565b61044061043b366004615824565b610c58565b6040516103f7929190615dfc565b34801561045a57600080fd5b50610399610cef565b34801561046f57600080fd5b50610420610d22565b34801561048457600080fd5b5061042061049336600461584f565b610d32565b6104206104a6366004615824565b610e22565b3480156104b757600080fd5b506104c0610eba565b6040516103f79190615961565b3480156104d957600080fd5b506104206104e8366004615824565b610ede565b3480156104f957600080fd5b506103996105083660046157e0565b610f78565b34801561051957600080fd5b506104c061109c565b34801561052e57600080fd5b5061039961053d366004615781565b6110c0565b34801561054e57600080fd5b506104c06111bd565b34801561056357600080fd5b5061056c6111cc565b6040516103f79190615da5565b34801561058557600080fd5b506104206111e2565b34801561059a57600080fd5b506103996105a9366004615781565b6111e8565b3480156105ba57600080fd5b50610399611301565b3480156105cf57600080fd5b506105d86113bf565b6040516103f79190615de3565b3480156105f157600080fd5b506105fa6113e3565b6040516103f79190615ace565b34801561061357600080fd5b5061061c6113f1565b6040516103f79190615e0a565b34801561063557600080fd5b506104c06113f7565b34801561064a57600080fd5b506104c061141b565b34801561065f57600080fd5b5061039961143f565b34801561067457600080fd5b506104c06114af565b34801561068957600080fd5b506103996114d3565b34801561069e57600080fd5b506103996106ad366004615824565b61165c565b3480156106be57600080fd5b506106d26106cd366004615781565b6116e7565b6040516103f79493929190615a90565b3480156106ee57600080fd5b506104206106fd36600461584f565b611734565b34801561070e57600080fd5b506104c06117c3565b34801561072357600080fd5b506104206117d2565b34801561073857600080fd5b506103996107473660046157e0565b6117d8565b34801561075857600080fd5b506104206118d1565b34801561076d57600080fd5b5061039961077c366004615781565b6118d7565b34801561078d57600080fd5b506104c0611a77565b3480156107a257600080fd5b506105fa6107b1366004615781565b611a9b565b3480156107c257600080fd5b506103996107d1366004615781565b611b15565b6103996107e4366004615781565b611c6f565b3480156107f557600080fd5b506104c0611d79565b34801561080a57600080fd5b506103996108193660046157b1565b611d9d565b34801561082a57600080fd5b50610399610839366004615781565b611efb565b34801561084a57600080fd5b506104206108593660046157e0565b61208d565b34801561086a57600080fd5b5061056c6122f8565b34801561087f57600080fd5b50610420612307565b34801561089457600080fd5b506103996108a336600461562a565b61230d565b610399612410565b3480156108bc57600080fd5b506104206108cb36600461584f565b612434565b3480156108dc57600080fd5b506103996108eb36600461562a565b61250d565b3480156108fc57600080fd5b50610420612621565b34801561091157600080fd5b50610399610920366004615781565b612628565b34801561093157600080fd5b506105fa612746565b6109426127ad565b6001600160a01b03166109536117c3565b6001600160a01b0316146109ae576040805162461bcd60e51b815260206004820181905260248201527f4f776e61626c653a2063616c6c6572206973206e6f7420746865206f776e6572604482015290519081900360640190fd5b600854610100900460ff166109d55760405162461bcd60e51b815260040161039090615c1d565b60085460ff16156109f85760405162461bcd60e51b815260040161039090615b53565b6008805461ff00191690556040517fff2b959f2bcdb44c7ecb4b16dae055431019d7350607125cfc2b74a06632c90e90610a33903390615961565b60405180910390a1565b610a456127ad565b6001600160a01b0316610a566117c3565b6001600160a01b031614610ab1576040805162461bcd60e51b815260206004820181905260248201527f4f776e61626c653a2063616c6c6572206973206e6f7420746865206f776e6572604482015290519081900360640190fd5b60085460ff1615610ad45760405162461bcd60e51b815260040161039090615b53565b6008805460ff1961ff001990911661010017166001179055610b7d7f00000000000000000000000000000000000000000000000000000000000000007f00000000000000000000000000000000000000000000000000000000000000007f00000000000000000000000000000000000000000000000000000000000000007f00000000000000000000000000000000000000000000000000000000000000006101a460006127b1565b60048190556040517f574214b195bf5273a95bb4498e35cf1fde0ce327c727a95ec2ab359f7ba4e11a91610a3391615df3565b630a85bd0160e11b5b949350505050565b6000610c50827f00000000000000000000000000000000000000000000000000000000000000007f00000000000000000000000000000000000000000000000000000000000000007f00000000000000000000000000000000000000000000000000000000000000007f00000000000000000000000000000000000000000000000000000000000000006127de565b90505b919050565b6008546000908190610100900460ff1615610c855760405162461bcd60e51b815260040161039090615c39565b60026001541415610ccb576040805162461bcd60e51b815260206004820152601f6024820152600080516020615e59833981519152604482015290519081900360640190fd5b6002600155610cdf33868634876000612819565b6001805590969095509350505050565b600854610100900460ff1615610d175760405162461bcd60e51b815260040161039090615c39565b610d1f61296a565b50565b6000610d2c612a58565b90505b90565b6000610c50827f00000000000000000000000000000000000000000000000000000000000000007f00000000000000000000000000000000000000000000000000000000000000007f00000000000000000000000000000000000000000000000000000000000000007f00000000000000000000000000000000000000000000000000000000000000007f00000000000000000000000000000000000000000000000000000000000000007f0000000000000000000000000000000000000000000000000000000000000000600760009054906101000a90046001600160801b03166001600160801b0316612ee9565b600854600090610100900460ff1615610e4d5760405162461bcd60e51b815260040161039090615c39565b60026001541415610e93576040805162461bcd60e51b815260206004820152601f6024820152600080516020615e59833981519152604482015290519081900360640190fd5b60026001819055506000610eac33868634876001612819565b506001805595945050505050565b7f000000000000000000000000000000000000000000000000000000000000000081565b600854600090610100900460ff1615610f095760405162461bcd60e51b815260040161039090615c39565b60026001541415610f4f576040805162461bcd60e51b815260206004820152601f6024820152600080516020615e59833981519152604482015290519081900360640190fd5b6002600155610f5e8433612f2d565b610f6c338585856000613021565b60018055949350505050565b600854610100900460ff1615610fa05760405162461bcd60e51b815260040161039090615c39565b60026001541415610fe6576040805162461bcd60e51b815260206004820152601f6024820152600080516020615e59833981519152604482015290519081900360640190fd5b6002600155610ff58233612f2d565b6000610fff61296a565b600084815260096020908152604091829020825160808101845281546001600160a01b0381168252600160a01b900463ffffffff1692810192909252600101546001600160601b03811692820192909252600160601b9091046001600160801b0316606082015290915061107481858561310f565b61107e8183613159565b61108884826131ab565b611092338461327e565b5050600180555050565b7f000000000000000000000000000000000000000000000000000000000000000081565b6110c86127ad565b6001600160a01b03166110d96117c3565b6001600160a01b031614611134576040805162461bcd60e51b815260206004820181905260248201527f4f776e61626c653a2063616c6c6572206973206e6f7420746865206f776e6572604482015290519081900360640190fd5b6002546001600160a01b031661115c5760405162461bcd60e51b815260040161039090615afc565b606481111561117d5760405162461bcd60e51b815260040161039090615c55565b7f14914da2bf76024616fbe1859783fcd4dbddcb179b1f3a854949fbf920dcb957600354826040516111b0929190615dfc565b60405180910390a1600355565b6002546001600160a01b031681565b600754600160801b90046001600160801b031681565b60055481565b600854610100900460ff16156112105760405162461bcd60e51b815260040161039090615c39565b60026001541415611256576040805162461bcd60e51b815260206004820152601f6024820152600080516020615e59833981519152604482015290519081900360640190fd5b60026001556112658133612f2d565b600061126f61296a565b600083815260096020908152604091829020825160808101845281546001600160a01b0381168252600160a01b900463ffffffff1692810192909252600101546001600160601b03811692820192909252600160601b9091046001600160801b031660608201529091506112e4813385613368565b6112ee8183613159565b6112f883826131ab565b50506001805550565b6113096127ad565b6001600160a01b031661131a6117c3565b6001600160a01b031614611375576040805162461bcd60e51b815260206004820181905260248201527f4f776e61626c653a2063616c6c6572206973206e6f7420746865206f776e6572604482015290519081900360640190fd5b600080546040516001600160a01b03909116907f8be0079c531659141344cd1fd0a4f28419497f9722a3daafe3b4186f6b6457e0908390a3600080546001600160a01b0319169055565b7f000000000000000000000000000000000000000000000000000000000000000081565b600854610100900460ff1681565b6101a481565b7f000000000000000000000000000000000000000000000000000000000000000081565b7f000000000000000000000000000000000000000000000000000000000000000081565b600854610100900460ff166114665760405162461bcd60e51b815260040161039090615c1d565b60085460ff16156114895760405162461bcd60e51b815260040161039090615b53565b600654620151800142116109f85760405162461bcd60e51b815260040161039090615be3565b7f000000000000000000000000000000000000000000000000000000000000000081565b6114db6127ad565b6001600160a01b03166114ec6117c3565b6001600160a01b031614611547576040805162461bcd60e51b815260206004820181905260248201527f4f776e61626c653a2063616c6c6572206973206e6f7420746865206f776e6572604482015290519081900360640190fd5b60085460ff161561156a5760405162461bcd60e51b815260040161039090615b53565b600854610100900460ff16156115925760405162461bcd60e51b815260040161039090615c39565b6000600554116115b45760405162461bcd60e51b815260040161039090615b6f565b60006115e0427f000000000000000000000000000000000000000000000000000000000000000061343f565b905062eff10081106116045760405162461bcd60e51b815260040161039090615ce6565b6008805461ff001916610100179055600580546000190190819055426006556040517f32fb7c9891bc4f963c7de9f1186d2a7755c7d6e9f4604dabe1d8bb3027c2f49e9161165191615df3565b60405180910390a150565b600854610100900460ff16156116845760405162461bcd60e51b815260040161039090615c39565b600260015414156116ca576040805162461bcd60e51b815260206004820152601f6024820152600080516020615e59833981519152604482015290519081900360640190fd5b60026001556116d98333612f2d565b611092338484846001613021565b600960205260009081526040902080546001909101546001600160a01b03821691600160a01b900463ffffffff16906001600160601b03811690600160601b90046001600160801b031684565b6000610c50827f00000000000000000000000000000000000000000000000000000000000000007f00000000000000000000000000000000000000000000000000000000000000007f00000000000000000000000000000000000000000000000000000000000000007f00000000000000000000000000000000000000000000000000000000000000006134a1565b6000546001600160a01b031690565b60065481565b600854610100900460ff16156118005760405162461bcd60e51b815260040161039090615c39565b60026001541415611846576040805162461bcd60e51b815260206004820152601f6024820152600080516020615e59833981519152604482015290519081900360640190fd5b60026001556118558233612f2d565b61185d61296a565b50600082815260096020908152604091829020825160808101845281546001600160a01b0381168252600160a01b900463ffffffff1692810192909252600101546001600160601b03811692820192909252600160601b9091046001600160801b031660608201526112ee813385856134b3565b60035481565b60085460ff166118f95760405162461bcd60e51b815260040161039090615d03565b6002600154141561193f576040805162461bcd60e51b815260206004820152601f6024820152600080516020615e59833981519152604482015290519081900360640190fd5b600260015561194e8133612f2d565b6000818152600960209081526040808320815160808101835281546001600160a01b0381168252600160a01b900463ffffffff1693810193909352600101546001600160601b03811691830191909152600160601b90046001600160801b03908116606083015260075491929116906119cc908390339086906137af565b5060006119e983606001516001600160801b0316600454846139fa565b90506000611a0d8285604001516001600160601b031661343f90919063ffffffff16565b60006060860181905260408601529050611a2785856131ab565b611a31338261327e565b7f7dff8cdaec6a8d4d1ad32d3c947ed0f0281c3d6456621ef928defae96ec6cddb338683604051611a64939291906159d5565b60405180910390a1505060018055505050565b7f000000000000000000000000000000000000000000000000000000000000000081565b6000818152600960209081526040808320815160808101835281546001600160a01b0381168252600160a01b900463ffffffff1693810193909352600101546001600160601b03811691830191909152600160601b90046001600160801b0316606082015281611b09612a58565b9050610bb98282613a23565b60085460ff16611b375760405162461bcd60e51b815260040161039090615d03565b60026001541415611b7d576040805162461bcd60e51b815260206004820152601f6024820152600080516020615e59833981519152604482015290519081900360640190fd5b6002600155604051632770a7eb60e21b81526001600160a01b037f00000000000000000000000000000000000000000000000000000000000000001690639dc29fac90611bd09033908590600401615999565b600060405180830381600087803b158015611bea57600080fd5b505af1158015611bfe573d6000803e3d6000fd5b505060045460075460009350611c2092508491906001600160801b03166139fa565b9050611c2c338261327e565b7f2131ef4f2f82ca75fe7d2e646ebfa45b6be25e53510c829629c76b641500ec67338383604051611c5f939291906159d5565b60405180910390a1505060018055565b600854610100900460ff1615611c975760405162461bcd60e51b815260040161039090615c39565b60026001541415611cdd576040805162461bcd60e51b815260206004820152601f6024820152600080516020615e59833981519152604482015290519081900360640190fd5b6002600155611cec8133612f2d565b611cf461296a565b50600081815260096020908152604091829020825160808101845281546001600160a01b0381168252600160a01b900463ffffffff1692810192909252600101546001600160601b03811692820192909252600160601b9091046001600160801b03166060820152611d67818334613a39565b611d7182826131ab565b505060018055565b7f000000000000000000000000000000000000000000000000000000000000000081565b7f00000000000000000000000000000000000000000000000000000000000000006001600160a01b0316331480611e7857506040516331a9108f60e11b815233907f00000000000000000000000000000000000000000000000000000000000000006001600160a01b031690636352211e90611e1d908690600401615df3565b60206040518083038186803b158015611e3557600080fd5b505afa158015611e49573d6000803e3d6000fd5b505050506040513d601f19601f82011682018060405250810190611e6d9190615646565b6001600160a01b0316145b611e945760405162461bcd60e51b815260040161039090615b19565b6000828152600960205260409081902080546001600160a01b0319166001600160a01b038416179055517f3137fc9cd2e33c34f86e29c24d81f3c75b0bce639d3c4ed0d31eeff1160a7ff590611eef903390859085906159b2565b60405180910390a15050565b600854610100900460ff1615611f235760405162461bcd60e51b815260040161039090615c39565b60026001541415611f69576040805162461bcd60e51b815260206004820152601f6024820152600080516020615e59833981519152604482015290519081900360640190fd5b6002600155611f788133612f2d565b600081815260096020908152604091829020825160808101845281546001600160a01b038082168352600160a01b90910463ffffffff16938201939093526001909101546001600160601b03811682850152600160601b90046001600160801b0316606082015291516331a9108f60e11b81526120829183917f000000000000000000000000000000000000000000000000000000000000000090911690636352211e9061202a908790600401615df3565b60206040518083038186803b15801561204257600080fd5b505afa158015612056573d6000803e3d6000fd5b505050506040513d601f19601f8201168201806040525081019061207a9190615646565b8460006137af565b50611d7182826131ab565b600854600090610100900460ff16156120b85760405162461bcd60e51b815260040161039090615c39565b600260015414156120fe576040805162461bcd60e51b815260206004820152601f6024820152600080516020615e59833981519152604482015290519081900360640190fd5b6002600155600061210d61296a565b600085815260096020908152604091829020825160808101845281546001600160a01b0381168252600160a01b900463ffffffff1692810192909252600101546001600160601b03811692820192909252600160601b9091046001600160801b031660608201529091506121818183613a23565b1561219e5760405162461bcd60e51b815260040161039090615c72565b6000612248827f00000000000000000000000000000000000000000000000000000000000000006001600160a01b0316636352211e896040518263ffffffff1660e01b81526004016121f09190615df3565b60206040518083038186803b15801561220857600080fd5b505afa15801561221c573d6000803e3d6000fd5b505050506040513d601f19601f820116820180604052508101906122409190615646565b8860016137af565b90506122548284613a23565b156122795761226386836131ab565b61226d338261327e565b600093505050506122ee565b6122838282613a76565b60008061229284888733613aac565b915091507f158ba9ab7bbbd08eeffa4753bad41f4d450e24831d293427308badf3eadd8c76338984846040516122cb94939291906159f6565b60405180910390a16122dd88856131ab565b6122e7338261327e565b5093505050505b6001805592915050565b6007546001600160801b031681565b60045481565b6123156127ad565b6001600160a01b03166123266117c3565b6001600160a01b031614612381576040805162461bcd60e51b815260206004820181905260248201527f4f776e61626c653a2063616c6c6572206973206e6f7420746865206f776e6572604482015290519081900360640190fd5b6001600160a01b0381166123a75760405162461bcd60e51b815260040161039090615b8c565b6002546040517faaebcf1bfa00580e41d966056b48521fa9f202645c86d4ddf28113e617c1b1d3916123e6916001600160a01b03909116908490615a57565b60405180910390a1600280546001600160a01b0319166001600160a01b0392909216919091179055565b60085460ff166124325760405162461bcd60e51b815260040161039090615d03565b565b6000610c50827f00000000000000000000000000000000000000000000000000000000000000007f00000000000000000000000000000000000000000000000000000000000000007f00000000000000000000000000000000000000000000000000000000000000007f00000000000000000000000000000000000000000000000000000000000000007f00000000000000000000000000000000000000000000000000000000000000007f0000000000000000000000000000000000000000000000000000000000000000612508612a58565b612ee9565b6125156127ad565b6001600160a01b03166125266117c3565b6001600160a01b031614612581576040805162461bcd60e51b815260206004820181905260248201527f4f776e61626c653a2063616c6c6572206973206e6f7420746865206f776e6572604482015290519081900360640190fd5b6001600160a01b0381166125c65760405162461bcd60e51b8152600401808060200182810382526026815260200180615e796026913960400191505060405180910390fd5b600080546040516001600160a01b03808516939216917f8be0079c531659141344cd1fd0a4f28419497f9722a3daafe3b4186f6b6457e091a3600080546001600160a01b0319166001600160a01b0392909216919091179055565b6217124081565b60085460ff1661264a5760405162461bcd60e51b815260040161039090615d03565b60026001541415612690576040805162461bcd60e51b815260206004820152601f6024820152600080516020615e59833981519152604482015290519081900360640190fd5b60026001908155600082815260096020908152604091829020825160808101845281546001600160a01b038082168352600160a01b90910463ffffffff16938201939093529301546001600160601b03811684840152600160601b90046001600160801b0316606084015290516331a9108f60e11b81526120829183917f000000000000000000000000000000000000000000000000000000000000000090911690636352211e9061202a908790600401615df3565b60085460ff1681565b806001600160801b0381168114610c53576040805162461bcd60e51b815260206004820152600560248201527f4f46313238000000000000000000000000000000000000000000000000000000604482015290519081900360640190fd5b3390565b6000806127c2888888888888613bd3565b90506127d081612710613c79565b9150505b9695505050505050565b6000806127f0868686868b6000613bd3565b905061280e670de0b6b3a76400006128088380613ce0565b90613c79565b979650505050505050565b600080600061282661296a565b90508560008561284b57612846836128088b670de0b6b3a7640000613ce0565b61284d565b885b905060006128596155bc565b8b612871576128678d613d40565b909c5090506128e4565b61287b8c33612f2d565b5060008b815260096020908152604091829020825160808101845281546001600160a01b0381168252600160a01b900463ffffffff1692810192909252600101546001600160601b03811692820192909252600160601b9091046001600160801b031660608201525b8215612905576128f581848c613e53565b94509150612905818e8e86613f4a565b891561291657612916818d86613a39565b881561292857612928818e8e8c6134b3565b6129328186613159565b61293c8c826131ab565b811561295857600254612958906001600160a01b03168361327e565b50999b909a5098505050505050505050565b6007546000906001600160801b03600160801b9091041642141561299a57506007546001600160801b0316610d2f565b60006129a4612a58565b6007546040519192507f339e53729b0447795ff69e70a74fed98fc7fef6fe94b7521099b32f0f8de4822916129f3916001600160801b03808216928692600160801b9004909116904290615db9565b60405180910390a1612a048161274f565b600780546fffffffffffffffffffffffffffffffff19166001600160801b0392909216919091179055612a364261274f565b600780546001600160801b03928316600160801b029216919091179055905090565b6007546000908190612a8490612a7f904290600160801b90046001600160801b031661343f565b614007565b905063ffffffff8116612aa45750506007546001600160801b0316610d2f565b6000612aaf8261404b565b6007549091506001600160801b03166000612b90837f00000000000000000000000000000000000000000000000000000000000000007f00000000000000000000000000000000000000000000000000000000000000007f00000000000000000000000000000000000000000000000000000000000000007f00000000000000000000000000000000000000000000000000000000000000007f00000000000000000000000000000000000000000000000000000000000000007f000000000000000000000000000000000000000000000000000000000000000089612ee9565b90506000612c21847f00000000000000000000000000000000000000000000000000000000000000007f00000000000000000000000000000000000000000000000000000000000000007f00000000000000000000000000000000000000000000000000000000000000007f00000000000000000000000000000000000000000000000000000000000000006134a1565b9050600073__$f98cbc68e241c61b30349ba6b91a975736$__63fc505d3787621712406040518363ffffffff1660e01b8152600401612c61929190615e1b565b60206040518083038186803b158015612c7957600080fd5b505af4158015612c8d573d6000803e3d6000fd5b505050506040513d601f19601f82011682018060405250810190612cb19190615746565b90506000612cd3670de0b6b3a764000061280885670b1a2bc2ec500000613ce0565b905080841015612ce557809350612d15565b6000612d05670de0b6b3a76400006128088667136dcc951d8c0000613ce0565b905080851115612d13578094505b505b60405163fc505d3760e01b815260009073__$f98cbc68e241c61b30349ba6b91a975736$__9063fc505d3790612d519087908990600401615dfc565b60206040518083038186803b158015612d6957600080fd5b505af4158015612d7d573d6000803e3d6000fd5b505050506040513d601f19601f82011682018060405250810190612da19190615746565b90506000612e398473__$f98cbc68e241c61b30349ba6b91a975736$__632cbbdee5856040518263ffffffff1660e01b8152600401612de09190615aee565b60206040518083038186803b158015612df857600080fd5b505af4158015612e0c573d6000803e3d6000fd5b505050506040513d601f19601f82011682018060405250810190612e309190615746565b600f0b9061420f565b604051637e0c9e7960e11b815290915060009073__$f98cbc68e241c61b30349ba6b91a975736$__9063fc193cf290612e7a90600f86900b90600401615aee565b60206040518083038186803b158015612e9257600080fd5b505af4158015612ea6573d6000803e3d6000fd5b505050506040513d601f19601f82011682018060405250810190612eca9190615746565b9050612eda600f82900b896142a0565b9a505050505050505050505090565b600080612efb898888888e60006127b1565b90506000612f0e8a8a878a8f6000613bd3565b9050612f1e846128088385613ce0565b9b9a5050505050505050505050565b806001600160a01b03167f00000000000000000000000000000000000000000000000000000000000000006001600160a01b0316636352211e846040518263ffffffff1660e01b8152600401612f839190615df3565b60206040518083038186803b158015612f9b57600080fd5b505afa158015612faf573d6000803e3d6000fd5b505050506040513d601f19601f82011682018060405250810190612fd39190615646565b6001600160a01b0316148061300157506000828152600960205260409020546001600160a01b038281169116145b61301d5760405162461bcd60e51b815260040161039090615b19565b5050565b60008061302c61296a565b90506000836130505761304b8261280888670de0b6b3a7640000613ce0565b613052565b855b600088815260096020908152604091829020825160808101845281546001600160a01b0381168252600160a01b900463ffffffff1692810192909252600101546001600160601b03811692820192909252600160601b9091046001600160801b0316606082015290915081156130ce576130ce818a8a856143f1565b85156130df576130df81898861310f565b6130e98184613159565b6130f388826131ab565b851561310357613103338761327e565b50979650505050505050565b61311983826144ae565b7f627a692d5a03ab34732c0d2aa319f3ecdebdc4528f383eabcb25441dc0a70cfb33838360405161314c939291906159d5565b60405180910390a1505050565b60008061316684846144ca565b91509150816131875760405162461bcd60e51b815260040161039090615c8f565b80156131a55760405162461bcd60e51b815260040161039090615cac565b50505050565b600091825260096020908152604092839020825181549284015163ffffffff16600160a01b027fffffffffffffffff00000000ffffffffffffffffffffffffffffffffffffffff6001600160a01b039092166001600160a01b0319909416939093171691909117815591810151600190920180546060909201516001600160801b0316600160601b027fffffffff00000000000000000000000000000000ffffffffffffffffffffffff6001600160601b039094166bffffffffffffffffffffffff199093169290921792909216179055565b804710156132d3576040805162461bcd60e51b815260206004820152601d60248201527f416464726573733a20696e73756666696369656e742062616c616e6365000000604482015290519081900360640190fd5b6040516000906001600160a01b0384169083908381818185875af1925050503d806000811461331e576040519150601f19603f3d011682016040523d82523d6000602084013e613323565b606091505b50509050806133635760405162461bcd60e51b815260040180806020018281038252603a815260200180615e9f603a913960400191505060405180910390fd5b505050565b602083015163ffffffff1661337c84614684565b604051632142170760e11b81526001600160a01b037f000000000000000000000000000000000000000000000000000000000000000016906342842e0e906133cc90309087908690600401615975565b600060405180830381600087803b1580156133e657600080fd5b505af11580156133fa573d6000803e3d6000fd5b505050507fe59f38fa1264fc25c9f0185eee136eaf810d90b8e7293b342e4037c68720177a338383604051613431939291906159d5565b60405180910390a150505050565b600082821115613496576040805162461bcd60e51b815260206004820152601e60248201527f536166654d6174683a207375627472616374696f6e206f766572666c6f770000604482015290519081900360640190fd5b508082035b92915050565b6000806127f0868686868b60006127b1565b6000806000807f00000000000000000000000000000000000000000000000000000000000000006001600160a01b03166399fbab88866040518263ffffffff1660e01b81526004016135059190615df3565b6101806040518083038186803b15801561351e57600080fd5b505afa158015613532573d6000803e3d6000fd5b505050506040513d601f19601f820116820180604052508101906135569190615887565b505050509750505095509550955050506000816001600160801b03161161358f5760405162461bcd60e51b815260040161039090615bc6565b7f000000000000000000000000000000000000000000000000000000000000000062ffffff168262ffffff16146135d85760405162461bcd60e51b815260040161039090615b36565b7f00000000000000000000000000000000000000000000000000000000000000006001600160a01b0316846001600160a01b031614801561364a57507f00000000000000000000000000000000000000000000000000000000000000006001600160a01b0316836001600160a01b0316145b806136c257507f00000000000000000000000000000000000000000000000000000000000000006001600160a01b0316836001600160a01b03161480156136c257507f00000000000000000000000000000000000000000000000000000000000000006001600160a01b0316846001600160a01b0316145b6136de5760405162461bcd60e51b815260040161039090615ba9565b6136e888866146cf565b604051632142170760e11b81526001600160a01b037f000000000000000000000000000000000000000000000000000000000000000016906342842e0e90613738908a9030908a90600401615975565b600060405180830381600087803b15801561375257600080fd5b505af1158015613766573d6000803e3d6000fd5b505050507f3917c2f26ce18614e3aedd1289da672ef6563c5c295f49e9b1697ae0ad31556233878760405161379d939291906159d5565b60405180910390a15050505050505050565b602084015160009063ffffffff16806137cc576000915050610bb9565b6000806137d883614764565b9092509050811561386257604051632e1a7d4d60e01b81526001600160a01b037f00000000000000000000000000000000000000000000000000000000000000001690632e1a7d4d9061382f908590600401615df3565b600060405180830381600087803b15801561384957600080fd5b505af115801561385d573d6000803e3d6000fd5b505050505b60008060006138738b86868b614931565b9194509250905081156139225760405163a9059cbb60e01b81526001600160a01b037f0000000000000000000000000000000000000000000000000000000000000000169063a9059cbb906138ce908d908690600401615999565b602060405180830381600087803b1580156138e857600080fd5b505af11580156138fc573d6000803e3d6000fd5b505050506040513d601f19601f820116820180604052508101906139209190615726565b505b82156139a957604051632770a7eb60e21b81526001600160a01b037f00000000000000000000000000000000000000000000000000000000000000001690639dc29fac906139769030908790600401615999565b600060405180830381600087803b15801561399057600080fd5b505af11580156139a4573d6000803e3d6000fd5b505050505b7ffd0ae2fd36bd955810ae42615bc5ff277c0d0dfcb930f06c9f1777c0ef0752e3338a87878787876040516139e49796959493929190615a1c565b60405180910390a19a9950505050505050505050565b6000610bb96ec097ce7bc90715b34b9f100000000061280885613a1d8887613ce0565b90613ce0565b600080613a3084846144ca565b50949350505050565b613a438382613a76565b7f3ca13b7aab12bad7472691fe558faa6b25e99099824a0070a88bd5aa84be610f33838360405161314c939291906159d5565b6040820151613a9790613a92906001600160601b0316836149c7565b614a21565b6001600160601b031660409092019190915250565b600080600080613ad78789606001516001600160801b03168a604001516001600160601b0316614a68565b9150915081871015613afb5760405162461bcd60e51b815260040161039090615c00565b604051632770a7eb60e21b81526001600160a01b037f00000000000000000000000000000000000000000000000000000000000000001690639dc29fac90613b499088908690600401615999565b600060405180830381600087803b158015613b6357600080fd5b505af1158015613b77573d6000803e3d6000fd5b50505050613b8e8289614ad090919063ffffffff16565b613b9888826144ae565b6000613ba489886144ca565b9150508015613bc55760405162461bcd60e51b815260040161039090615cac565b509097909650945050505050565b6040805163cce79bd560e01b81526001600160a01b0387811660048301528681166024830152858116604483015263ffffffff851660648301528315156084830152915160009289169163cce79bd59160a4808301926020929190829003018186803b158015613c4257600080fd5b505afa158015613c56573d6000803e3d6000fd5b505050506040513d6020811015613c6c57600080fd5b5051979650505050505050565b6000808211613ccf576040805162461bcd60e51b815260206004820152601a60248201527f536166654d6174683a206469766973696f6e206279207a65726f000000000000604482015290519081900360640190fd5b818381613cd857fe5b049392505050565b600082613cef5750600061349b565b82820282848281613cfc57fe5b0414613d395760405162461bcd60e51b8152600401808060200182810382526021815260200180615ed96021913960400191505060405180910390fd5b9392505050565b6000613d4a6155bc565b6040516354ba0f2760e01b81526000906001600160a01b037f000000000000000000000000000000000000000000000000000000000000000016906354ba0f2790613d99908790600401615961565b602060405180830381600087803b158015613db357600080fd5b505af1158015613dc7573d6000803e3d6000fd5b505050506040513d601f19601f82011682018060405250810190613deb9190615799565b6040805160808101825260008082526020820181905281830181905260608201529051919250907f25ff1e0131762176a9084e92880f880f39d6d0e62134607f37e631efe1bad87190613e419033908590615999565b60405180910390a19092509050915091565b600354600090819080613e6d576000849250925050613f42565b600080613efd877f00000000000000000000000000000000000000000000000000000000000000007f00000000000000000000000000000000000000000000000000000000000000007f00000000000000000000000000000000000000000000000000000000000000007f0000000000000000000000000000000000000000000000000000000000000000614b06565b90506000613f116127106128088487613ce0565b905080871115613f2c57613f25878261343f565b9250613f3a565b613f3689826144ae565b8692505b945090925050505b935093915050565b613f548482614b32565b6040516340c10f1960e01b81526001600160a01b037f000000000000000000000000000000000000000000000000000000000000000016906340c10f1990613fa29086908590600401615999565b600060405180830381600087803b158015613fbc57600080fd5b505af1158015613fd0573d6000803e3d6000fd5b505050507fb19fa182730a088464dad0e9e0badeb470d0d8d937d854f5caf15c6ad1992c36338284604051613431939291906159d5565b8063ffffffff81168114610c53576040805162461bcd60e51b8152602060048083019190915260248201526327a3199960e11b604482015290519081900360640190fd5b6000807f00000000000000000000000000000000000000000000000000000000000000006001600160a01b031663de5a6e227f00000000000000000000000000000000000000000000000000000000000000006040518263ffffffff1660e01b81526004016140ba9190615961565b60206040518083038186803b1580156140d257600080fd5b505afa1580156140e6573d6000803e3d6000fd5b505050506040513d601f19601f8201168201806040525081019061410a919061586b565b905060007f00000000000000000000000000000000000000000000000000000000000000006001600160a01b031663de5a6e227f00000000000000000000000000000000000000000000000000000000000000006040518263ffffffff1660e01b815260040161417a9190615961565b60206040518083038186803b15801561419257600080fd5b505afa1580156141a6573d6000803e3d6000fd5b505050506040513d601f19601f820116820180604052508101906141ca919061586b565b905060008163ffffffff168363ffffffff16116141e757826141e9565b815b90508063ffffffff168563ffffffff16116142045784614206565b805b95945050505050565b6000600f83810b9083900b0260401d6f7fffffffffffffffffffffffffffffff19811280159061424f57506f7fffffffffffffffffffffffffffffff8113155b613d39576040805162461bcd60e51b815260206004820152600860248201527f4d554c2d4f565546000000000000000000000000000000000000000000000000604482015290519081900360640190fd5b6000816142af5750600061349b565b600083600f0b1215614308576040805162461bcd60e51b815260206004820152600760248201527f4d554c552d583000000000000000000000000000000000000000000000000000604482015290519081900360640190fd5b600f83900b6001600160801b038316810260401c90608084901c0277ffffffffffffffffffffffffffffffffffffffffffffffff811115614390576040805162461bcd60e51b815260206004820152600860248201527f4d554c552d4f4631000000000000000000000000000000000000000000000000604482015290519081900360640190fd5b60401b81198111156143e9576040805162461bcd60e51b815260206004820152600860248201527f4d554c552d4f4632000000000000000000000000000000000000000000000000604482015290519081900360640190fd5b019392505050565b6143fb8482614ad0565b604051632770a7eb60e21b81526001600160a01b037f00000000000000000000000000000000000000000000000000000000000000001690639dc29fac906144499086908590600401615999565b600060405180830381600087803b15801561446357600080fd5b505af1158015614477573d6000803e3d6000fd5b505050507fea19ffc45b48de6d95594aacff7214dd24595fdb0c60e98c8f0b269058c2f792338284604051613431939291906159d5565b6040820151613a9790613a92906001600160601b03168361343f565b60008060006145607f00000000000000000000000000000000000000000000000000000000000000007f00000000000000000000000000000000000000000000000000000000000000007f00000000000000000000000000000000000000000000000000000000000000007f00000000000000000000000000000000000000000000000000000000000000006101a460016127b1565b9050614678857f000000000000000000000000000000000000000000000000000000000000000086846706f05b59d3b200007f00000000000000000000000000000000000000000000000000000000000000006001600160a01b0316634a0a96eb7f00000000000000000000000000000000000000000000000000000000000000006101a46040518363ffffffff1660e01b8152600401614602929190615a71565b60206040518083038186803b15801561461a57600080fd5b505afa15801561462e573d6000803e3d6000fd5b505050506040513d601f19601f820116820180604052508101906146529190615767565b7f0000000000000000000000000000000000000000000000000000000000000000614b4e565b92509250509250929050565b602081015163ffffffff166146c5576040805162461bcd60e51b81526020600482015260026024820152612b1960f11b604482015290519081900360640190fd5b6000602090910152565b602082015163ffffffff1615614711576040805162461bcd60e51b8152602060048201526002602482015261563160f01b604482015290519081900360640190fd5b80614749576040805162461bcd60e51b815260206004820152600360248201526243323360e81b604482015290519081900360640190fd5b61475281614007565b63ffffffff1660209092019190915250565b6000807f0000000000000000000000000000000000000000000000000000000000000000816147938286614bf2565b50506040805160a0810182528981526001600160801b0383166020820152600081830181905260608201524260808201529051630624e65f60e11b815291945092506001600160a01b0385169150630c49ccbe906147f5908490600401615d62565b6040805180830381600087803b15801561480e57600080fd5b505af1158015614822573d6000803e3d6000fd5b505050506040513d601f19601f820116820180604052508101906148469190615801565b5050604080516080810182528781523060208201526001600160801b038183018190526060820152905163fc6f786560e01b815260009081906001600160a01b0387169063fc6f78659061489e908690600401615d1f565b6040805180830381600087803b1580156148b757600080fd5b505af11580156148cb573d6000803e3d6000fd5b505050506040513d601f19601f820116820180604052508101906148ef9190615801565b915091507f000000000000000000000000000000000000000000000000000000000000000061491f578082614922565b81815b97509750505050505050915091565b600080600080841561494a576149478787614cb0565b90505b606088015186906000906001600160801b03168211156149905760608a015161497d9089906001600160801b031661343f565b905089606001516001600160801b031691505b61499a8a83614ad0565b6149a38a614684565b6149ad8a8a613a76565b6149b78a846144ae565b9099909850909650945050505050565b600082820183811015613d39576040805162461bcd60e51b815260206004820152601b60248201527f536166654d6174683a206164646974696f6e206f766572666c6f770000000000604482015290519081900360640190fd5b806001600160601b0381168114610c53576040805162461bcd60e51b8152602060048083019190915260248201526327a31c9b60e11b604482015290519081900360640190fd5b6000808080614a8187614a7c886002613c79565b614d60565b9150915080851115614ab6576706f05b59d3b20000614aa0868361343f565b1015614ab657614ab08787614d60565b90925090505b84811115614ac45750849050835b90969095509350505050565b6060820151614af190614aec906001600160801b03168361343f565b61274f565b6001600160801b031660609092019190915250565b600080614b1a868686866101a46000613bd3565b905061280e670de0b6b3a76400006128088984613ce0565b6060820151614af190614aec906001600160801b0316836149c7565b60008088606001516001600160801b031660001415614b735750600190506000614be6565b6000614bac6ec097ce7bc90715b34b9f100000000061280889613a1d8c8f606001516001600160801b0316613ce090919063ffffffff16565b90506000614bbe8b8b8b8b8a8a614e3c565b90508681106000614bd0846003613ce0565b614bdb846002613ce0565b101595509093505050505b97509795505050505050565b6000806000806000808790506000806000806000856001600160a01b03166399fbab888d6040518263ffffffff1660e01b8152600401808281526020019150506101806040518083038186803b158015614c4b57600080fd5b505afa158015614c5f573d6000803e3d6000fd5b505050506040513d610180811015614c7657600080fd5b5060a081015160c082015160e083015161014084015161016090940151929e50909c509a5090985096505050505050509295509295909350565b6000613d39670de0b6b3a764000061280866470de4df820000613a1d87614d5a887f00000000000000000000000000000000000000000000000000000000000000007f00000000000000000000000000000000000000000000000000000000000000007f00000000000000000000000000000000000000000000000000000000000000007f0000000000000000000000000000000000000000000000000000000000000000614b06565b906149c7565b6000806000838511614d725784614d74565b835b90506000614e05827f00000000000000000000000000000000000000000000000000000000000000007f00000000000000000000000000000000000000000000000000000000000000007f00000000000000000000000000000000000000000000000000000000000000007f0000000000000000000000000000000000000000000000000000000000000000614b06565b9050614e2f614e28670de0b6b3a76400006128088467016345785d8a0000613ce0565b82906149c7565b9196919550909350505050565b6000866020015163ffffffff1660001415614e65575060408601516001600160601b03166127d4565b600080614e7e888a6020015163ffffffff168787614ed3565b90925090506000614ea66ec097ce7bc90715b34b9f100000000061280889613a1d868d613ce0565b60408b0151909150614ec5906001600160601b0316614d5a85846149c7565b9a9950505050505050505050565b6000806000806000806000614ee88b8b614bf2565b94509450945094509450600080614f0187878d88614f54565b9150915089614f2757826001600160801b03168101846001600160801b03168301614f40565b836001600160801b03168201836001600160801b031682015b985098505050505050505094509492505050565b600080600073__$d199f155f9376dc21890c162698c9ef049$__63986cfba3866040518263ffffffff1660e01b8152600401808260020b815260200191505060206040518083038186803b158015614fab57600080fd5b505af4158015614fbf573d6000803e3d6000fd5b505050506040513d6020811015614fd557600080fd5b50519050600287810b9086900b12156151985773__$a98c5df505b68ab2f483703658c95acb30$__632c32d4b673__$d199f155f9376dc21890c162698c9ef049$__63986cfba38a6040518263ffffffff1660e01b8152600401808260020b815260200191505060206040518083038186803b15801561505457600080fd5b505af4158015615068573d6000803e3d6000fd5b505050506040513d602081101561507e57600080fd5b50516040805163986cfba360e01b815260028b900b6004820152905173__$d199f155f9376dc21890c162698c9ef049$__9163986cfba3916024808301926020929190829003018186803b1580156150d557600080fd5b505af41580156150e9573d6000803e3d6000fd5b505050506040513d60208110156150ff57600080fd5b5051604080516001600160e01b031960e086901b1681526001600160a01b0393841660048201529290911660248301526001600160801b038816604483015260016064830152516084808301926020929190829003018186803b15801561516557600080fd5b505af4158015615179573d6000803e3d6000fd5b505050506040513d602081101561518f57600080fd5b505192506155b2565b8560020b8560020b12156154065773__$a98c5df505b68ab2f483703658c95acb30$__632c32d4b68273__$d199f155f9376dc21890c162698c9ef049$__63986cfba38a6040518263ffffffff1660e01b8152600401808260020b815260200191505060206040518083038186803b15801561521357600080fd5b505af4158015615227573d6000803e3d6000fd5b505050506040513d602081101561523d57600080fd5b5051604080516001600160e01b031960e086901b1681526001600160a01b0393841660048201529290911660248301526001600160801b038816604483015260016064830152516084808301926020929190829003018186803b1580156152a357600080fd5b505af41580156152b7573d6000803e3d6000fd5b505050506040513d60208110156152cd57600080fd5b50516040805163986cfba360e01b815260028a900b6004820152905191945073__$a98c5df505b68ab2f483703658c95acb30$__916348a0c5bd9173__$d199f155f9376dc21890c162698c9ef049$__9163986cfba391602480820192602092909190829003018186803b15801561534457600080fd5b505af4158015615358573d6000803e3d6000fd5b505050506040513d602081101561536e57600080fd5b5051604080516001600160e01b031960e085901b1681526001600160a01b03928316600482015291851660248301526001600160801b038816604483015260016064830152516084808301926020929190829003018186803b1580156153d357600080fd5b505af41580156153e7573d6000803e3d6000fd5b505050506040513d60208110156153fd57600080fd5b505191506155b2565b73__$a98c5df505b68ab2f483703658c95acb30$__6348a0c5bd73__$d199f155f9376dc21890c162698c9ef049$__63986cfba38a6040518263ffffffff1660e01b8152600401808260020b815260200191505060206040518083038186803b15801561547257600080fd5b505af4158015615486573d6000803e3d6000fd5b505050506040513d602081101561549c57600080fd5b50516040805163986cfba360e01b815260028b900b6004820152905173__$d199f155f9376dc21890c162698c9ef049$__9163986cfba3916024808301926020929190829003018186803b1580156154f357600080fd5b505af4158015615507573d6000803e3d6000fd5b505050506040513d602081101561551d57600080fd5b5051604080516001600160e01b031960e086901b1681526001600160a01b0393841660048201529290911660248301526001600160801b038816604483015260016064830152516084808301926020929190829003018186803b15801561558357600080fd5b505af4158015615597573d6000803e3d6000fd5b505050506040513d60208110156155ad57600080fd5b505191505b5094509492505050565b60408051608081018252600080825260208201819052918101829052606081019190915290565b8051610c5381615e31565b8051600281900b8114610c5357600080fd5b80516001600160801b0381168114610c5357600080fd5b805162ffffff81168114610c5357600080fd5b60006020828403121561563b578081fd5b8135613d3981615e31565b600060208284031215615657578081fd5b8151613d3981615e31565b60008060008060808587031215615677578283fd5b843561568281615e31565b935060208581013561569381615e31565b935060408601359250606086013567ffffffffffffffff808211156156b6578384fd5b818801915088601f8301126156c9578384fd5b8135818111156156d557fe5b604051601f8201601f19168101850183811182821017156156f257fe5b60405281815283820185018b1015615708578586fd5b81858501868301379081019093019390935250939692955090935050565b600060208284031215615737578081fd5b81518015158114613d39578182fd5b600060208284031215615757578081fd5b815180600f0b8114613d39578182fd5b600060208284031215615778578081fd5b613d39826155ee565b600060208284031215615792578081fd5b5035919050565b6000602082840312156157aa578081fd5b5051919050565b600080604083850312156157c3578182fd5b8235915060208301356157d581615e31565b809150509250929050565b600080604083850312156157f2578182fd5b50508035926020909101359150565b60008060408385031215615813578182fd5b505080516020909101519092909150565b600080600060608486031215615838578283fd5b505081359360208301359350604090920135919050565b600060208284031215615860578081fd5b8135613d3981615e46565b60006020828403121561587c578081fd5b8151613d3981615e46565b6000806000806000806000806000806000806101808d8f0312156158a957898afd5b8c516001600160601b03811681146158bf578a8bfd5b9b506158cd60208e016155e3565b9a506158db60408e016155e3565b99506158e960608e016155e3565b98506158f760808e01615617565b975061590560a08e016155ee565b965061591360c08e016155ee565b955061592160e08e01615600565b94506101008d015193506101208d015192506159406101408e01615600565b915061594f6101608e01615600565b90509295989b509295989b509295989b565b6001600160a01b0391909116815260200190565b6001600160a01b039384168152919092166020820152604081019190915260600190565b6001600160a01b03929092168252602082015260400190565b6001600160a01b0393841681526020810192909252909116604082015260600190565b6001600160a01b039390931683526020830191909152604082015260600190565b6001600160a01b0394909416845260208401929092526040830152606082015260800190565b6001600160a01b03979097168752602087019590955260408601939093526060850191909152608084015260a083015260c082015260e00190565b6001600160a01b0392831681529116602082015260400190565b6001600160a01b0392909216825263ffffffff16602082015260400190565b6001600160a01b0394909416845263ffffffff9290921660208401526001600160601b031660408301526001600160801b0316606082015260800190565b901515815260200190565b6001600160e01b031991909116815260200190565b600f9190910b815260200190565b60208082526003908201526210cc4d60ea1b604082015260600190565b60208082526003908201526204332360ec1b604082015260600190565b60208082526003908201526221991b60e91b604082015260600190565b602080825260029082015261219960f11b604082015260600190565b60208082526003908201526221989b60e91b604082015260600190565b60208082526003908201526243313360e81b604082015260600190565b60208082526003908201526243323360e81b604082015260600190565b60208082526003908201526243323560e81b604082015260600190565b60208082526003908201526208662760eb1b604082015260600190565b60208082526003908201526243323160e81b604082015260600190565b602080825260029082015261433160f01b604082015260600190565b602080825260029082015261043360f41b604082015260600190565b60208082526003908201526243313560e81b604082015260600190565b60208082526003908201526221989960e91b604082015260600190565b60208082526003908201526210cc8d60ea1b604082015260600190565b60208082526003908201526221991960e91b604082015260600190565b60208082526003908201526243313960e81b604082015260600190565b60208082526003908201526243313760e81b604082015260600190565b602080825260029082015261433360f01b604082015260600190565b815181526020808301516001600160a01b0316908201526040808301516001600160801b0390811691830191909152606092830151169181019190915260800190565b600060a082019050825182526001600160801b03602084015116602083015260408301516040830152606083015160608301526080830151608083015292915050565b6001600160801b0391909116815260200190565b6001600160801b039485168152602081019390935292166040820152606081019190915260800190565b62ffffff91909116815260200190565b90815260200190565b918252602082015260400190565b63ffffffff91909116815260200190565b63ffffffff929092168252602082015260400190565b6001600160a01b0381168114610d1f57600080fd5b63ffffffff81168114610d1f57600080fdfe5265656e7472616e637947756172643a207265656e7472616e742063616c6c004f776e61626c653a206e6577206f776e657220697320746865207a65726f2061646472657373416464726573733a20756e61626c6520746f2073656e642076616c75652c20726563697069656e74206d61792068617665207265766572746564536166654d6174683a206d756c7469706c69636174696f6e206f766572666c6f77a26469706673582212204b29ba1e910dbac720c73a4f3df7cdbb845900bdc285710f409d9a810367cc2c64736f6c63430007060033",
  "libraries": {
    "ABDKMath64x64": "0xE1C948230FBAABbF83116CFE4702A40144F84408",
    "SqrtPriceMathPartial": "0x5394886BCc8a1996858DD771ea934BB49eb76bBB",
    "TickMathExternal": "0x84eba0b32bAA7Cb69963C5a73FAedFD4410692b2"
  },
  "devdoc": {
    "kind": "dev",
    "methods": {
      "burnPowerPerpAmount(uint256,uint256,uint256)": {
        "params": {
          "_powerPerpAmount": "amount of powerPerp to burn",
          "_vaultId": "id of the vault",
          "_withdrawAmount": "amount of eth to withdraw"
        },
        "returns": {
          "_0": "amount of wPowerPerp burned"
        }
      },
      "burnWPowerPerpAmount(uint256,uint256,uint256)": {
        "params": {
          "_vaultId": "id of the vault",
          "_wPowerPerpAmount": "amount of wPowerPerp to burn",
          "_withdrawAmount": "amount of eth to withdraw"
        }
      },
      "constructor": {
        "params": {
          "_ethQuoteCurrencyPool": "uniswap v3 pool for weth / quoteCurrency",
          "_oracle": "oracle address",
          "_quoteCurrency": "quoteCurrency address",
          "_shortPowerPerp": "ERC721 token address representing the short position",
          "_uniPositionManager": "uniswap v3 position manager address",
          "_wPowerPerp": "ERC20 token address representing the long position",
          "_wPowerPerpPool": "uniswap v3 pool for wPowerPerp / weth",
          "_weth": "weth address"
        }
      },
      "deposit(uint256)": {
        "details": "deposit collateral into a vault",
        "params": {
          "_vaultId": "id of the vault"
        }
      },
      "depositUniPositionToken(uint256,uint256)": {
        "params": {
          "_uniTokenId": "uniswap position token id",
          "_vaultId": "id of the vault"
        }
      },
      "getDenormalizedMark(uint32)": {
        "params": {
          "_period": "period of time for the twap in seconds"
        },
        "returns": {
          "_0": "mark price denominated in $USD, scaled by 1e18"
        }
      },
      "getDenormalizedMarkForFunding(uint32)": {
        "details": "this is the mark that would be used to calculate a new normalization factor if funding was calculated now",
        "params": {
          "_period": "period which you want to calculate twap with"
        },
        "returns": {
          "_0": "mark price denominated in $USD, scaled by 1e18"
        }
      },
      "getExpectedNormalizationFactor()": {
        "details": "can be used for on-chain and off-chain calculations"
      },
      "getIndex(uint32)": {
        "details": "the index price is scaled down by INDEX_SCALE in the associated PowerXBase librarythis is the index price used when calculating funding and for collateralization",
        "params": {
          "_period": "period which you want to calculate twap with"
        },
        "returns": {
          "_0": "index price denominated in $USD, scaled by 1e18"
        }
      },
      "getUnscaledIndex(uint32)": {
        "details": "this is the mark that would be be used for future funding after a new normalization factor is applied",
        "params": {
          "_period": "period which you want to calculate twap with"
        },
        "returns": {
          "_0": "index price denominated in $USD, scaled by 1e18"
        }
      },
      "isVaultSafe(uint256)": {
        "details": "return if the vault is properly collateralized",
        "params": {
          "_vaultId": "id of the vault"
        },
        "returns": {
          "_0": "true if the vault is properly collateralized"
        }
      },
      "liquidate(uint256,uint256)": {
        "details": "liquidator can get back (wPowerPerp burned) * (index price) * (normalizationFactor)  * 110% in collateralnormally can only liquidate 50% of a vault's debtif a vault is under dust limit after a liquidation can fully liquidatewill attempt to reduceDebt first, and can earn a bounty if sucessful",
        "params": {
          "_maxDebtAmount": "max amount of wPowerPerpetual to repay",
          "_vaultId": "vault to liquidate"
        },
        "returns": {
          "_0": "amount of wPowerPerp repaid"
        }
      },
      "mintPowerPerpAmount(uint256,uint256,uint256)": {
        "params": {
          "_powerPerpAmount": "amount of powerPerp to mint",
          "_uniTokenId": "uniswap v3 position token id (additional collateral)",
          "_vaultId": "vault to mint wPowerPerp in"
        },
        "returns": {
          "_0": "vaultId",
          "_1": "amount of wPowerPerp minted"
        }
      },
      "mintWPowerPerpAmount(uint256,uint256,uint256)": {
        "params": {
          "_uniTokenId": "uniswap v3 position token id (additional collateral)",
          "_vaultId": "vault to mint wPowerPerp in",
          "_wPowerPerpAmount": "amount of wPowerPerp to mint"
        },
        "returns": {
          "_0": "vaultId"
        }
      },
      "onERC721Received(address,address,uint256,bytes)": {
        "details": "accept erc721 from safeTransferFrom and safeMint after callback",
        "returns": {
          "_0": "returns received selector"
        }
      },
      "owner()": {
        "details": "Returns the address of the current owner."
      },
      "pause()": {
        "details": "can only be called for 365 days since the contract was launched or 4 times"
      },
      "redeemLong(uint256)": {
        "params": {
          "_wPerpAmount": "amount of wPowerPerp to burn"
        }
      },
      "redeemShort(uint256)": {
        "details": "short position is redeemed by valuing the debt at the (settlement index value) * normalizationFactor",
        "params": {
          "_vaultId": "vault id"
        }
      },
      "reduceDebt(uint256)": {
        "details": "the caller won't get any bounty. this is expected to be used by vault owner",
        "params": {
          "_vaultId": "target vault"
        }
      },
      "reduceDebtShutdown(uint256)": {
        "details": "the caller won't get any bounty. this is expected to be used for insolvent vaults in shutdown",
        "params": {
          "_vaultId": "vault containing uniswap v3 position to liquidate"
        }
      },
      "renounceOwnership()": {
        "details": "Leaves the contract without owner. It will not be possible to call `onlyOwner` functions anymore. Can only be called by the current owner. NOTE: Renouncing ownership will leave the contract without an owner, thereby removing any functionality that is only available to the owner."
      },
      "setFeeRate(uint256)": {
        "details": "this function cannot be called if the feeRecipient is still un-set",
        "params": {
          "_newFeeRate": "new fee rate in basis points. can't be higher than 1%"
        }
      },
      "setFeeRecipient(address)": {
        "details": "this should be a contract handling insurance",
        "params": {
          "_newFeeRecipient": "new fee recipient"
        }
      },
      "shutDown()": {
        "details": "this bypasses the check on number of pauses or time based checks, but is irreversible and enables emergency settlement"
      },
      "transferOwnership(address)": {
        "details": "Transfers ownership of the contract to a new account (`newOwner`). Can only be called by the current owner."
      },
      "unPauseAnyone()": {
        "details": "anyone can unpause the contract after 24 hours"
      },
      "unPauseOwner()": {
        "details": "owner can unpause at any time"
      },
      "updateOperator(uint256,address)": {
        "details": "can be revoke by setting address to 0",
        "params": {
          "_operator": "new operator address",
          "_vaultId": "id of the vault"
        }
      },
      "withdraw(uint256,uint256)": {
        "params": {
          "_amount": "amount of eth to withdraw",
          "_vaultId": "id of the vault"
        }
      },
      "withdrawUniPositionToken(uint256)": {
        "params": {
          "_vaultId": "id of the vault"
        }
      }
    },
    "stateVariables": {
      "ONE": {
        "details": "basic unit used for calculation"
      },
      "PAUSE_TIME_LIMIT": {
        "details": "system can only be paused for 182 days from deployment"
      },
      "feeRate": {
        "details": "fee rate in basis point. feeRate of 1 = 0.01%"
      },
      "indexForSettlement": {
        "details": "the settlement price for each wPowerPerp for settlement"
      },
      "vaults": {
        "details": "vault data storage"
      },
      "wPowerPerpPool": {
        "details": "address of the powerPerp/weth pool"
      }
    },
    "version": 1
  },
  "userdoc": {
    "events": {
      "OpenVault(address,uint256)": {
        "notice": "Events"
      }
    },
    "kind": "user",
    "methods": {
      "applyFunding()": {
        "notice": "update the normalization factor as a way to pay funding"
      },
      "burnPowerPerpAmount(uint256,uint256,uint256)": {
        "notice": "burn powerPerp and remove collateral from a vault"
      },
      "burnWPowerPerpAmount(uint256,uint256,uint256)": {
        "notice": "burn wPowerPerp and remove collateral from a vault"
      },
      "constructor": {
        "notice": "constructor"
      },
      "depositUniPositionToken(uint256,uint256)": {
        "notice": "deposit uniswap position token into a vault to increase collateral ratio"
      },
      "donate()": {
        "notice": "add eth into a contract. used in case contract has insufficient eth to pay for settlement transactions"
      },
      "getDenormalizedMark(uint32)": {
        "notice": "get the expected mark price of powerPerp after funding has been applied"
      },
      "getDenormalizedMarkForFunding(uint32)": {
        "notice": "get the mark price of powerPerp before funding has been applied"
      },
      "getExpectedNormalizationFactor()": {
        "notice": "returns the expected normalization factor, if the funding is paid right now"
      },
      "getIndex(uint32)": {
        "notice": "get the index price of the powerPerp, scaled down"
      },
      "getUnscaledIndex(uint32)": {
        "notice": "the unscaled index of the power perp in USD, scaled by 18 decimals"
      },
      "liquidate(uint256,uint256)": {
        "notice": "if a vault is under the 150% collateral ratio, anyone can liquidate the vault by burning wPowerPerp"
      },
      "mintPowerPerpAmount(uint256,uint256,uint256)": {
        "notice": "deposit collateral and mint wPowerPerp (non-rebasing) for specified powerPerp (rebasing) amount"
      },
      "mintWPowerPerpAmount(uint256,uint256,uint256)": {
        "notice": "deposit collateral and mint wPowerPerp"
      },
      "pause()": {
        "notice": "pause the system for up to 24 hours after which any one can unpause"
      },
      "redeemLong(uint256)": {
        "notice": "redeem wPowerPerp for (settlement index value) * normalizationFactor when the system is shutdown"
      },
      "redeemShort(uint256)": {
        "notice": "redeem short position when the system is shutdown"
      },
      "reduceDebt(uint256)": {
        "notice": "withdraw assets from uniswap v3 position, reducing debt and increasing collateral in the vault"
      },
      "reduceDebtShutdown(uint256)": {
        "notice": "after the system is shutdown, insolvent vaults need to be have their uniswap v3 token assets withdrawn by forceif a vault has a uniswap v3 position in it, anyone can call to withdraw uniswap v3 token assets, reducing debt and increasing collateral in the vault"
      },
      "setFeeRate(uint256)": {
        "notice": "set the fee rate when user mints"
      },
      "setFeeRecipient(address)": {
        "notice": "set the recipient who will receive the fee"
      },
      "shutDown()": {
        "notice": "shutting down the system allows all long wPowerPerp to be settled at index * normalizationFactorshort positions can be redeemed for vault collateral minus value of debtpause (if not paused) and then immediately shutdown the system, can be called when paused already"
      },
      "unPauseAnyone()": {
        "notice": "unpause the contract"
      },
      "unPauseOwner()": {
        "notice": "unpause the contract"
      },
      "updateOperator(uint256,address)": {
        "notice": "authorize an address to modify the vault"
      },
      "withdraw(uint256,uint256)": {
        "notice": "withdraw collateral from a vault"
      },
      "withdrawUniPositionToken(uint256)": {
        "notice": "withdraw uniswap v3 position token from a vault"
      }
    },
    "notice": "Error C0: Paused C1: Not paused C2: Shutdown C3: Not shutdown C4: Invalid oracle address C5: Invalid shortPowerPerp address C6: Invalid wPowerPerp address C7: Invalid weth address C8: Invalid quote currency address C9: Invalid eth:quoteCurrency pool address C10: Invalid wPowerPerp:eth pool address C11: Invalid Uniswap position manager C12: Can not liquidate safe vault C13: Invalid address C14: Set fee recipient first C15: Fee too high C16: Paused too many times C17: Pause time limit exceeded C18: Not enough paused time has passed C19: Cannot receive eth C20: Not allowed C21: Need full liquidation C22: Dust vault left C23: Invalid nft C24: Invalid state C25: 0 liquidity Uniswap position token C26: Wrong fee tier for NFT deposit",
    "version": 1
  },
  "storageLayout": {
    "storage": [
      {
        "astId": 7,
        "contract": "contracts/core/Controller.sol:Controller",
        "label": "_owner",
        "offset": 0,
        "slot": "0",
        "type": "t_address"
      },
      {
        "astId": 4176,
        "contract": "contracts/core/Controller.sol:Controller",
        "label": "_status",
        "offset": 0,
        "slot": "1",
        "type": "t_uint256"
      },
      {
        "astId": 7732,
        "contract": "contracts/core/Controller.sol:Controller",
        "label": "feeRecipient",
        "offset": 0,
        "slot": "2",
        "type": "t_address"
      },
      {
        "astId": 7737,
        "contract": "contracts/core/Controller.sol:Controller",
        "label": "feeRate",
        "offset": 0,
        "slot": "3",
        "type": "t_uint256"
      },
      {
        "astId": 7740,
        "contract": "contracts/core/Controller.sol:Controller",
        "label": "indexForSettlement",
        "offset": 0,
        "slot": "4",
        "type": "t_uint256"
      },
      {
        "astId": 7743,
        "contract": "contracts/core/Controller.sol:Controller",
        "label": "pausesLeft",
        "offset": 0,
        "slot": "5",
        "type": "t_uint256"
      },
      {
        "astId": 7745,
        "contract": "contracts/core/Controller.sol:Controller",
        "label": "lastPauseTime",
        "offset": 0,
        "slot": "6",
        "type": "t_uint256"
      },
      {
        "astId": 7747,
        "contract": "contracts/core/Controller.sol:Controller",
        "label": "normalizationFactor",
        "offset": 0,
        "slot": "7",
        "type": "t_uint128"
      },
      {
        "astId": 7749,
        "contract": "contracts/core/Controller.sol:Controller",
        "label": "lastFundingUpdateTimestamp",
        "offset": 16,
        "slot": "7",
        "type": "t_uint128"
      },
      {
        "astId": 7753,
        "contract": "contracts/core/Controller.sol:Controller",
        "label": "isShutDown",
        "offset": 0,
        "slot": "8",
        "type": "t_bool"
      },
      {
        "astId": 7755,
        "contract": "contracts/core/Controller.sol:Controller",
        "label": "isSystemPaused",
        "offset": 1,
        "slot": "8",
        "type": "t_bool"
      },
      {
        "astId": 7760,
        "contract": "contracts/core/Controller.sol:Controller",
        "label": "vaults",
        "offset": 0,
        "slot": "9",
        "type": "t_mapping(t_uint256,t_struct(Vault)14613_storage)"
      }
    ],
    "types": {
      "t_address": {
        "encoding": "inplace",
        "label": "address",
        "numberOfBytes": "20"
      },
      "t_bool": {
        "encoding": "inplace",
        "label": "bool",
        "numberOfBytes": "1"
      },
      "t_mapping(t_uint256,t_struct(Vault)14613_storage)": {
        "encoding": "mapping",
        "key": "t_uint256",
        "label": "mapping(uint256 => struct VaultLib.Vault)",
        "numberOfBytes": "32",
        "value": "t_struct(Vault)14613_storage"
      },
      "t_struct(Vault)14613_storage": {
        "encoding": "inplace",
        "label": "struct VaultLib.Vault",
        "members": [
          {
            "astId": 14606,
            "contract": "contracts/core/Controller.sol:Controller",
            "label": "operator",
            "offset": 0,
            "slot": "0",
            "type": "t_address"
          },
          {
            "astId": 14608,
            "contract": "contracts/core/Controller.sol:Controller",
            "label": "NftCollateralId",
            "offset": 20,
            "slot": "0",
            "type": "t_uint32"
          },
          {
            "astId": 14610,
            "contract": "contracts/core/Controller.sol:Controller",
            "label": "collateralAmount",
            "offset": 0,
            "slot": "1",
            "type": "t_uint96"
          },
          {
            "astId": 14612,
            "contract": "contracts/core/Controller.sol:Controller",
            "label": "shortAmount",
            "offset": 12,
            "slot": "1",
            "type": "t_uint128"
          }
        ],
        "numberOfBytes": "64"
      },
      "t_uint128": {
        "encoding": "inplace",
        "label": "uint128",
        "numberOfBytes": "16"
      },
      "t_uint256": {
        "encoding": "inplace",
        "label": "uint256",
        "numberOfBytes": "32"
      },
      "t_uint32": {
        "encoding": "inplace",
        "label": "uint32",
        "numberOfBytes": "4"
      },
      "t_uint96": {
        "encoding": "inplace",
        "label": "uint96",
        "numberOfBytes": "12"
      }
    }
  }
}